:020000040800F2
:100000009006002089010008B9110008B11100080C
:10001000B511000845020008D914000800000000CE
:10002000000000000000000000000000CD140008E7
:100030004902000800000000BD110008D1140008AA
:10004000A3010008A3010008A3010008A301000800
:10005000A3010008A3010008A3010008A3010008F0
:10006000A3010008A3010008A3010008A3010008E0
:10007000A3010008A3010008A3010008A3010008D0
:10008000A3010008A3010008A3010008A3010008C0
:10009000A3010008A3010008A3010008A3010008B0
:1000A000A3010008A3010008A3010008A3010008A0
:1000B000A3010008A3010008A3010008A301000890
:1000C000A3010008A3010008A3010008A301000880
:1000D000A3010008A3010008A3010008A301000870
:1000E000A3010008A3010008A301000800F002F822
:1000F00000F03AF80AA090E8000C82448344AAF188
:100100000107DA4501D100F02FF8AFF2090EBAE885
:100110000F0013F0010F18BFFB1A43F0010318473B
:100120000015000020150000103A24BF78C878C1DF
:10013000FAD8520724BF30C830C144BF04680C60ED
:10014000704700000023002400250026103A28BF35
:1001500078C1FBD8520728BF30C148BF0B60704739
:100160001FB51FBD10B510BD00F031F81146FFF7E7
:10017000F7FF01F0B3F900F04FF803B4FFF7F2FF17
:1001800003BC00F057F800000948804709480047C1
:10019000FEE7FEE7FEE7FEE7FEE7FEE7FEE7FEE737
:1001A000FEE7FEE704480549054A064B7047000094
:1001B000D5140008ED0000089000002090060020F3
:1001C00090020020900200207047704770477546EB
:1001D00000F02CF8AE4605006946534620F00700B3
:1001E000854618B020B5FFF7DDFFBDE820404FF091
:1001F00000064FF000074FF000084FF0000BAC4630
:10020000ACE8C009ACE8C009ACE8C009ACE8C0097A
:1002100021F007018D46704710B50446AFF300800A
:100220002046BDE81040FFF7A8BF00000048704717
:100230001000002001491820ABBEFEE72600020096
:1002400070470000FEE700007047000040F28C009D
:10025000C2F200000068704740F2000040F28C01DA
:10026000C2F20000C2F2000100780A68104408607F
:100270007047000080B542F20000C4F2020001683D
:1002800041F010010160032000F07AF80F2000F027
:1002900005F800F027F8002080BD000070B540F29E
:1002A0000006C2F2000640F208013278C2F20001F4
:1002B0004FF47A730968B3FBF2F20446B1FBF2F132
:1002C000084600F05FFF0F2C4FF0010508D838B941
:1002D0004FF0FF3021460022002500F025F8746021
:1002E000284670BD82B041F21800C4F202000168D5
:1002F000022241F001010160016801F00101019158
:100300000199416841F080514160406800F080509F
:10031000009000980420C4F20100016862F31A61A1
:10032000016002B07047000010B54EF60C5CCEF2D2
:10033000000CDCF80030C3F3022E8EF00704042C0E
:1003400028BF0424BEF103034FF0FF3E0EFA04F46D
:1003500038BF0023A14399400EFA03F39A43114397
:1003600000F00F0200F160430901043A03F5644311
:100370006244002848BF02F10C03197010BD000050
:100380004EF60C51CEF200010A684FF6FF031A40F8
:1003900060F30A2242F0806040F0FD700860704710
:1003A0002020C4F20E2001210160704780B5012891
:1003B00018D0022836D0102832D141F20401C4F2FC
:1003C00002010A6851F8040CC00129D5C2F3834028
:1003D0002DA3185CD2033DD440F60012C0F23D02BA
:1003E000504343E041F20400C4F20200C16940F20C
:1003F00002320A40B2F5817F04BF4FF4004080BD55
:1004000001F44071B1F5407F1CD0B1F5007F07D1F8
:10041000006A49F64041800701EAE07080BD00BFF4
:10042000002080BD00F0A0F941F20401C4F20201F5
:1004300009680222C1F3813102EB4101B0FBF1F006
:1004400080BD00BF50F8040C4FF22441800301EA44
:10045000E07080BD0A6810A3C2F340429A5C41F28A
:100460000023C0F27A03B3FBF2F250430968490259
:1004700048BF80BD4AF6AB214000CAF6AA21A0FBC6
:100480000101480880BD00BF0203040506070809F2
:100490000A0B0C0D0E0F1010010200002DE9F041A7
:1004A00082B00446007841F21C06C007C4F202067E
:1004B0004AD0306810F0805808D1306840F0805041
:1004C0003060306800F080500190019847F20007DA
:1004D000C4F200073868C00512D4386840F4807050
:1004E0003860FFF7B3FE05463868C00508D4FFF74B
:1004F000ADFE401B6428F7D9032002B0BDE8F081AF
:10050000706810F4407012D0616801F44071884244
:100510000DD0706840F24042C4F24222012320F420
:10052000407113600023C007136071602AD17068A6
:10053000616820F440700843B8F1000F706003D187
:10054000306820F0805030602068810707D556F869
:10055000181CA26821F44041114346F8181CC0063B
:1005600004D4002002B0BDE8F08100BF56F8180C9A
:10057000E16820F48000084346F8180C002002B01F
:10058000BDE8F081FFF762FE054641F2883700BF03
:1005900070688007CBD4FFF759FE401BB8424FF07C
:1005A0000300F5D9EBE700002DE9F04381B0002806
:1005B00000F0858042F20008C4F202080446D8F830
:1005C00000000D4600F0070088420CD2D8F8000069
:1005D00020F007002843C8F80000D8F8000000F019
:1005E0000700A8426BD1206841F204098107C4F2D8
:1005F000020917D5410705D5D9F8001041F4E0618B
:10060000C9F80010010705D5D9F8001041F4605170
:10061000C9F80010D9F80010A26821F0F0011143C8
:10062000C9F80010C00741D1D8F8000000F0070059
:10063000A8420CD9D8F8000020F007002843C8F8D9
:100640000000D8F8000000F00700A84237D1206869
:10065000410707D5D9F80010E26821F4E0611143A1
:10066000C9F80010000708D5D9F80000216920F466
:10067000605040EAC100C9F80000D9F8002002F03B
:100680000C00082841F20020C0F27A0050D141F25B
:100690001063C2F38341C0F60003595CD2033BD41C
:1006A00040F60010C0F23D00484341E06068022877
:1006B0000AD001282AD159F8041C890308D4012042
:1006C00001B0BDE8F08300BF59F8041C8901F6D5DC
:1006D000D9F8001021F003010843C9F80000FFF722
:1006E000B5FD064641F28837D9F80000616800F090
:1006F0000C00B0EB810F97D0FFF7A8FD801BB8422C
:10070000F2D9032001B0BDE8F08300BF59F8041C02
:100710008907D4D5DCE700BFD9F8002041F20E6389
:10072000C2F34042C0F600039A5C4843B0FBF2F0CB
:10073000D9F8001041F2F652C1F30311C0F60002DD
:10074000515C40F2080220FA01F140F20400C2F2CA
:1007500000000068C2F200021160FFF79FFD002058
:1007600001B0BDE8F083000040F2080041F204014E
:10077000C2F20000C4F202010068096841F2066298
:10078000C1F3C221C0F60002515CC84070470000AE
:100790002DE9F04182B0002868D00446007841F28B
:1007A0000006C007C4F2020625D0706800F00C00F5
:1007B00004281BD0706800F00C00082802D1706873
:1007C000C00313D46068002800F06881B0F5A02F42
:1007D00000F07C81B0F5803F00F07C81306820F42F
:1007E00080303060306820F4802076E1306880030B
:1007F00001D56068D0B32078800718D5706810F0F4
:100800000C0F07D0706800F00C0008286ED17068DB
:10081000C0036BD43068800702D52069012825D138
:100820003068616920F0F80040EAC100306020784B
:1008300000071FD42078400732D4E56995B170686D
:1008400000F00C00082840F08F80012D0ED0706859
:10085000216A00F480328A4208D1616A00F4701083
:10086000884203D1002002B0BDE8F081012002B02F
:10087000BDE8F081A069002862D00020C4F24220C7
:100880000121C0F88014FFF7E1FC0546706A80077B
:1008900000F18C80FFF7DAFC401B0228F6D92AE130
:1008A000F06910F0805808D1F06940F08050F06194
:1008B000F06900F080500090009847F20007C4F201
:1008C00000073868C00529D4386840F48070386063
:1008D000FFF7BCFC054600BF3868C0051ED4FFF713
:1008E000B5FC401B6428F7D905E100BF206900284A
:1008F00040F20000C4F2422000F082800121016039
:10090000FFF7A4FC054600BF306880073FF588AFBD
:10091000FFF79CFC401B0228F6D9ECE0E0680028B9
:1009200000F08080052800F09780012800F0988072
:10093000306A20F001003062306A20F0040092E05A
:100940000020C4F242200021C0F88014FFF77EFC92
:10095000054600BF706A80077FF56CAFFFF776FC35
:10096000401B0228F6D9C6E00027C4F24227002027
:100970003866FFF76BFC022D05460BD1306880010D
:1009800040F1BE80FFF762FC401B02284FF00300DD
:10099000F4D968E7306880017FF564AFFFF756FC53
:1009A000401B02284FF00300F4D95CE740F2080036
:1009B000C2F20000006844F6D351C1F26201A0FB0C
:1009C0000101480A019000BF00BF0198411E0028A4
:1009D00001913FF42FAF00BF0198411E0028019103
:1009E0003FF428AF00BF0198411E002801913FF459
:1009F00021AF00BF0198411E00280191E4D119E701
:100A000000210160FFF722FC054600BF3068800727
:100A10007FF50DAFFFF71AFC401B02284FF00300D3
:100A2000F4D920E7306A20F001003062306A20F00B
:100A300004003062FFF70AFC054641F2883700BF28
:100A4000306A800720D5FFF701FC401BB8424FF009
:100A50000300F5D907E700BF306A40F004003062B8
:100A6000306A40F001003062FFF7F0FB054641F2CA
:100A7000883700BF306A800706D4FFF7E7FB401BCA
:100A8000B842F7D937E000BFB8F1000F7FF4D5AE18
:100A9000F06920F08050F061CFE600BF306820F4AC
:100AA00080303060306820F480203060FFF7CEFB6B
:100AB000054600BF306880037FF59DAEFFF7C6FB9B
:100AC000401B64284FF00300F4D9CCE6306840F4B2
:100AD00080203060306840F480303060FFF7B6FB33
:100AE000054600BF306880033FF585AEFFF7AEFBDB
:100AF000401B6428F6D9032002B0BDE8F08100BF96
:100B0000206AB0F5803F05D17168A26821F40031F8
:100B1000114371607168626A21F4741111430843D2
:100B2000706001203866FFF791FB04463068800151
:100B30003FF598AEFFF78AFB001B02284FF0030039
:100B4000F4D990E670B582B0064600208DF8060014
:100B5000ADF80400002E4FF001004DD00C460029E6
:100B60004AD0154601A93046002200F04BF818B1D2
:100B7000012002B070BD00BF337B717BB07BF27B84
:100B80002370E2706170A070C5B3A2F10A03DEB2F7
:100B90004FF0CD0C06FB0CF6F50A05EB8505A3EB33
:100BA0004503012505EBD626092A88BF43EA06122C
:100BB000E270A1F10A02D3B203FB0CF3DE0A06EBEA
:100BC0008606A2EB460205EBD323092988BF42EA39
:100BD00003116170A0F10A01CAB202FB0CF2D30A40
:100BE00003EB8303A1EB430105EBD222092888BF65
:100BF00041EA0210A070002002B070BD002002B0D7
:100C000070BD00002DE9F047064600284FF00100B6
:100C100000F0A5800C46002900F0A18030684168F2
:100C2000490700F1D98091468269C169836948F614
:100C3000890583EA02073F041CBFC1691A4689B2CD
:100C400041EA02414BF2C532C9F2A212A1FB0223D2
:100C5000DA0A4FF4616302FB13139FB26F437D0DF9
:100C600065702D01A5EB5757A3EB870345F280175D
:100C7000C0F20107B942A37036D344F20753CCF255
:100C80002E23A1FB03374AF6AB23CAF6AA23A2FB05
:100C900003352B0903EB4303A2EBC3022270026A64
:100CA000406A4FEA174880B240EA0240451A98BFAE
:100CB0004FF0FF35421C4AF68062CFF6FE7208FB09
:100CC000021A08BF0546FFF7C1FA074630684168B7
:100CD000890647D4FFF7BAFAC01BB0F57A7FF5D979
:100CE0000120BDE8F08700BF2270B9F1000F00F0CD
:100CF0009F802178CD26A1F10A03DFB27743FD0A58
:100D000005EB85056278A3EB45030125A07805EB8B
:100D1000D727092988BF43EA07112170A2F10A01E8
:100D2000CBB27343DF0A07EB8707A1EB470105EB63
:100D3000D323092A88BF41EA0312A0F10A01627095
:100D4000CAB27243D30A03EB8303A1EB430105EB61
:100D5000D222092888BF41EA0210A0700020BDE815
:100D6000F08700BF416841F0100141604FEA1A412D
:100D700081611FFA8AF1C161416821F0100141606F
:100D8000FFF764FA074600BF30684068800609D460
:100D9000FFF75CFAC01BB0F57A7FF5D90120BDE8FA
:100DA000F08700BF681C11D05544FFF74FFA074683
:100DB00030684168890613D4FFF748FAC01BB0F5C4
:100DC0007A7F4FF00100F3D9C9E700BF30464FF0FA
:100DD000FF3100F04BFB18B30120BDE8F08700BFE6
:100DE000416841F010014160290C0162A9B24162E1
:100DF000416821F010014160FFF728FA074600BF63
:100E00003068406880060BD4FFF720FAC01BB0F5AD
:100E10007A7F4FF0010088BFBDE8F087F0E700BFA0
:100E20003046414600F0CCF9B9F1000F7FF461AFD4
:100E30000020BDE8F087000070B5002866D00446A9
:100E4000407C20B900202074204600F06FF802207A
:100E500060742068416821F008014160FFF7F6F9ED
:100E6000064600BF20684568FFF7F0F929070546E8
:100E70000ED4A81BB0F57A7FF4D901250420607444
:100E8000284670BDFFF7E2F9401BB0F57A7FF4D831
:100E9000216848688006F5D5486846F62C4240F03F
:100EA000100048604868C4F2000220F00700486063
:100EB000A06818B1536823F001035360136823F44A
:100EC0006073184310606068421C06D10120012540
:100ED000FFF76CFA30B321680138C0F3034280B2E7
:100EE0008A60C860486820F010004860FFF7AEF9DB
:100EF000054600BF20684068800609D4FFF7A6F9C0
:100F0000401BB0F57A7FF5D9B7E700BF012070BD6F
:100F100040F201100025A4F80D000120E573607473
:100F2000284670BD04206074284670BD80B582B02C
:100F3000006842F60001C4F20001884202D002B00B
:100F400080BD00BFFFF72CFA41F21C00C4F2020082
:100F5000016841F0006101600068012100F000605B
:100F60000190019840F23C40C4F24220016002B07E
:100F700080BD0000F0B581B0044600284FF00100AC
:100F800018BF002902D101B0F0BD00BF207C0128AC
:100F90004FF00200F7D0012323746074CB78BAB10C
:100FA000180900EB800003F00F0202EB40034878C1
:100FB0008A78070907EB870700F00F0000EB470767
:100FC000100900EB800002F00F0202EB400001E08C
:100FD0004F788878022FDAB2E3736773A0730FD863
:100FE00017237B4348F63967C3F6E307A3FB0737AC
:100FF000C7F3470C02F2CF7340F2D47E0CE000BF7F
:1010000047F2D916FFB2C0F21406774302F5FA632D
:101010004FEAD74C40F2D27EC0B210449D0841F254
:101020007B4770446F431D0940F63E2600EB93005A
:101030007543A0EB574000EB1540604482B242F28A
:1010400093435A43A0EB12439BB25B0803EB12425B
:101050009208A2EBC20210442268207308709169C2
:10106000D0699369002683EA01073F041CBFD06959
:10107000194680B240EA014045F69071C0F2010184
:1010800088421BD344F20751CCF22E21A0FB01125F
:10109000110C40F2A3225143A0EBC117FFF7D6F881
:1010A000054600BF2068416889060DD4FFF7CEF8D9
:1010B000401BB0F57A7FF5D920E000BF0121002068
:1010C0006174267401B0F0BD416841F010014160C7
:1010D000390C8161B9B2C161416821F010014160F0
:1010E000FFF7B4F8054600BF2068416889060BD4B5
:1010F000FFF7ACF8401BB0F57A7FF5D90120042149
:101100006174267401B0F0BD016A406A80B240EAA1
:101110000140B84230D200F5803000F5A347FFF718
:1011200095F8054620684168890607D4FFF78EF8D0
:10113000401BB0F57A7FF5D9E0E700BF416841F088
:1011400010014160390C0162B9B24162416821F07D
:1011500010014160FFF77AF8054620684068800674
:101160000AD4FFF773F8411B0120B1F57A7F4FF0E5
:101170000401F2D9A4E700BF0020012161742674A4
:1011800001B0F0BD411E0020B0EB116F1CBF01206B
:1011900070474EF21002CEF2000251604EF623511B
:1011A000CEF20001F0230B700721906011607047B0
:1011B000FEE70000FEE70000FEE7000070470000C9
:1011C0002DE9F043427B837B90F80FC0002900F0AB
:1011D000D380012901F0010E18D1BEF1000F00F0FB
:1011E000CB800C2A00F2C8800121914041F2AA571D
:1011F000394200F0B7801F2BC0F0B9800C2A40F0B4
:10120000B9800CF1010C0122B5E000BF45F6294977
:1012100045F628474DF20B7821F00101012441F2F7
:10122000AA55CCF28F29C0F28F27C0F2A30802E0A2
:1012300001330239D1D00C2A16D804FA02F62E4214
:1012400008D01E2B0BD90C2A0CD10CF1010C012259
:1012500009E000BF16F4256F1ED01D2B02D8013304
:1012600002E000BF013201230C2AE2D804FA02F6A0
:101270002E4209D01F2BDBD30C2A0AD10CF1010C12
:1012800001220123D5E700BF16F4256F0CD01E2BD9
:10129000CED301320123CCE7022AE5D11B2B0BD898
:1012A00001330222E0E700BF022AC2D11C2B0DD27B
:1012B00001330222BDE700BF1D2B0DD01C2B0FD127
:1012C0005FEA8C7216D000222FE000BF0AD01D2BDF
:1012D0000ED101230322ACE701230322C4E700BFA0
:1012E0000222C1E75FEA8C720ED000222FE000BF1D
:1012F00002229EE71FFA8CF202FB09F24FEAB203C8
:10130000BB420BD9012210E01FFA8CF202FB09F25A
:101310004FEAB203BB4213D9012218E04FEA32125E
:1013200042454FF0000238BF0122002A4FF002026E
:101330004FF01D0308BF032208BF012394E700BF3D
:101340004FEA321242454FF0000238BF0122002A14
:101350004FF002024FF01D0308BF032208BF012314
:1013600067E700BF11F4256F48D01E2B02D201336E
:1013700002E000BF01320123D1B2022980F80FC080
:10138000427383730ED81722514348F63962C3F66D
:10139000E302A1FB0212C2F347010CF2CF7240F24A
:1013A000D47709E047F2D917C0F2140779430CF556
:1013B000FA62C90C40F2D277DBB248F21F5663449E
:1013C000C5F2EB163B44A2FB066503EB9202A2EBCF
:1013D000551202EBD512114444F62512C2F2924284
:1013E000A1FB0223CA1A03EB52029308DB00A3EB12
:1013F0009202891A0173BDE8F08300BF022ABBD1B3
:101400001C2B03D201330222B6E700BF04D01D2BF0
:1014100008D101230322AFE75FEA8C7104D00121D8
:101420001CE000BF0222A7E745F629421FFA8CF113
:10143000CCF28F224A4345F628434FEAB201C0F26C
:101440008F2399424FF0000108D84DF20A734FEAFA
:101450003212C0F2A3039A4288BF012102221D2347
:10146000002918BF032218BF012385E770B50D4678
:101470000446FEF7EBFE064620684168890607D45D
:10148000FEF7E4FE801BB0F57A7FF5D9012070BD30
:10149000416841F010014160290C0162A9B241622A
:1014A000416821F010014160FEF7D0FE054600BF03
:1014B00020684068800607D4FEF7C8FE401BB0F5E0
:1014C0007A7FF5D9012070BD002070BD7047000003
:1014D000FEF7C2BE70470000FEE7000094B0FEF7C2
:1014E000C9FE03200A904FF4803000240B900120A5
:1014F000CDE91244CDE91044CDE90E440E90102000
:101500000F900AA8CDE90C44CDE90344FFF740F958
:1015100020B1EFF3108072B6FEE700BF0F20CDE9D7
:10152000050405A80021CDE907440994FFF73CF81C
:1015300020B1EFF3108072B6FEE700BF01200190EA
:101540004FF44070029001A8FEF7A8FF20B1EFF31E
:10155000108072B6FEE700BF41F21800C4F202002C
:10156000016840F2700441F0200101600168C2F29C
:10157000000401F020010A910A9901684FF4807279
:1015800041F004010160006842F6000100F004002F
:101590000A900A9840F20670C1F209700A90C4F2EB
:1015A0000001204640F8081F4FF0FF31C0E901124A
:1015B000FFF742FC20B1EFF3108072B6FEE700BFE8
:1015C00004F108050AA928460022FFF7D3FC28B138
:1015D000EFF3108072B600BFFEE700BFE61C00BF4D
:1015E000284621460022FFF70DFB284631460022FF
:1015F000FFF7A8FAF4E70000000000000000010275
:1016000003040607080900000000010203040102A8
:1016100002030405060708090A0B0C0D0E0F101033
:1016200040160008000000201000000028010008FB
:101630005016000810000020800600004401000839
:1016400001000000100000000024F4000000000071
:04000005080000ED02
:00000001FF
