:020000040800F2
:10000000E006002091010008FD100008F51000082E
:10001000F910000891040008111100080000000008
:1000200000000000000000000000000005110008B2
:10003000AD070008000000000111000809110008C8
:10004000AB010008AB010008AB010008AB010008E0
:10005000AB010008AB010008AB010008AB010008D0
:10006000AB010008AB010008AB010008AB010008C0
:10007000AB010008AB010008AB010008AB010008B0
:10008000AB010008AB010008AB010008AB010008A0
:10009000AB010008AB010008AB010008AB01000890
:1000A000AB010008AB010008AB010008AB01000880
:1000B000AB010008AB010008AB010008AB01000870
:1000C000AB010008AB010008AB010008AB01000860
:1000D000AB010008AB010008AB010008AB01000850
:1000E000AB010008AB010008AB01000800F002F80A
:1000F00000F03FF80AA090E8000C82448344AAF183
:100100000107DA4501D100F034F8AFF2090EBAE880
:100110000F0013F0010F18BFFB1A43F0010318473B
:10012000C0110000E0110000103A24BF78C878C167
:10013000FAD8520724BF30C830C144BF04680C60ED
:10014000704700000023002400250026103A28BF35
:1001500078C1FBD8520728BF30C148BF0B60704739
:10016000642900F07D80002070471FB51FBD10B5C9
:1001700010BD00F052F91146FFF7F7FF00F0CAFF7B
:1001800000F070F903B4FFF7F2FF03BC00F078F958
:100190000948804709480047FEE7FEE7FEE7FEE71B
:1001A000FEE7FEE7FEE7FEE7FEE7FEE70448054957
:1001B000054A064B704700000D110008ED000008CD
:1001C000E0000020E0060020E0020020E002002025
:1001D0000FB41CB5074B06AA7B44694600900598EE
:1001E00000F003F90020694600F012F91CBC5DF82C
:1001F00014FB0000350200002DE9F0410E460446D4
:10020000002020622046E168884730B3252805D0C9
:10021000D4E901219047206A401CF2E7E1682046BA
:1002200000278847050018D0A5F14100192802D8F9
:1002300020354FF400673246294620462760FFF7F5
:100240008FFF40B1012804D0F61D26F007060836BE
:10025000D8E7361DD6E72846DAE7206ABDE8F08100
:100260002DE9F0410646002410687529314616A58F
:1002700010D0AFF30080002802DA404213A507E057
:1002800031688A0701D512A502E0490704D511A5F6
:10029000012401E0AFF3008000210A2206F12407C7
:1002A00009E0B0FBF2FCB0FBF2F302FB1C003030C3
:1002B00078541846491C0028F3D123462A46304674
:1002C000BDE8F04100F032B8000000002D00000051
:1002D0002B000000200000004FF0000200B5134684
:1002E00094469646203922BFA0E80C50A0E80C5056
:1002F000B1F12001BFF4F7AF090728BFA0E80C5007
:1003000048BF0CC05DF804EB890028BF40F8042BFF
:1003100008BF704748BF20F8022B11F0804F18BF6C
:1003200000F8012B70477047704770472DE9F04780
:100330000D4699469246044600F124080168880655
:1003400004D5E06921F01001216000E00120A842FD
:1003500001DD471B00E00027A1697A1902EB0900C3
:10036000081AA0612078C00602D42046AFF30080AE
:10037000002608E0D4E901211AF806009047206A17
:10038000401C761C20624E45F4DB2078C0060AD55E
:100390002046AFF3008006E0D4E9012130209047E9
:1003A000206A401C2062381EA7F10107F4DC07E038
:1003B000D4E9012118F805009047206A401C20620A
:1003C000281EA5F10105F3DC2046AFF3008020785C
:1003D000000602D50220BDE8F0870120FBE70000FF
:1003E00001694A1C02610878704700B58FB0CDE9F9
:1003F00001310021059105497944CDE903101146E9
:100400006846FFF7F9FE0FB000BD0000E5FFFFFFF3
:100410000A6802F8010B0A607047754600F02CF874
:10042000AE4605006946534620F00700854618B0E1
:1004300020B5FFF7BBFEBDE820404FF000064FF0AF
:1004400000074FF000084FF0000BAC46ACE8C009C5
:10045000ACE8C009ACE8C009ACE8C00921F007016C
:100460008D46704710B50446AFF300802046BDE8C6
:100470001040FFF787BE00000048704710000020C2
:1004800001491820ABBEFEE72600020070470000BD
:10049000FEE700002DE9F04F8BB00293044626984A
:1004A0000DF1500E0A902598174609902498884619
:1004B000089023980DF1680A079022984FF0100BCE
:1004C000069021980590209804901F9803901E98FC
:1004D00001909EE80F50DDF874909AE86004208146
:1004E0000198A77020860398029F6063049884F89F
:1004F00000B02087059884F80180E0630698676063
:10050000A4F840000798E160606408982282A4F88B
:10051000480009986361E0640A98A4F818C0A4F838
:1005200050003220C4F81CE025846662A4F828A09C
:10053000C4F82C9000F03CF940F60640C3F61400D5
:10054000C4F8520020460621002200F0BBF894F8BF
:1005500053102046002200F0B5F894F854102046BD
:10056000002200F0AFF894F855102046002200F069
:10057000A9F820460121002200F0A4F8204602211B
:1005800000220BB0BDE8F04F00F09CB880B5437876
:1005900090F802E08B4290F800C098BF591E964533
:1005A00098BFAEF10102D2B20CA39A5CBCF1000F6D
:1005B00011440BD0BCF1100F18BF80BD41F0800179
:1005C000C9B20022BDE8804000F07CB841F0800153
:1005D000C9B20022BDE8804000F002B800401454C7
:1005E000B0B504460D4640682189002A18BF012293
:1005F00000F000FA606B218FC5F3001200F0FAF9E9
:10060000E06BB4F84010C5F3401200F0F3F9606CF1
:10061000B4F84810C5F3801200F0ECF9E06CB4F8BF
:100620005010EA0900F0E6F9E068218A002200F0A3
:10063000E1F9012000F0BCF8E068218A012200F015
:10064000D9F9012000F0B4F8E068218A002200F016
:10065000D1F9012000F0ACF8606B218F05F00102A8
:1006600000F0C8F9E06BB4F84010C5F3400200F0A8
:10067000C1F9606CB4F84810C5F3800200F0BAF913
:10068000E06CB4F85010C5F3C00200F0B3F9E068B4
:10069000218A002200F0AEF9012000F089F8E0681C
:1006A000218A012200F0A6F9012000F081F8E0681B
:1006B000218A002200F09EF90120BDE8B04000F040
:1006C00077B80000B0B504460D4640682189002A7D
:1006D00018BF012200F08EF96069218B05F001023C
:1006E00000F088F9E069218CC5F3400200F082F93E
:1006F000606A218DC5F3800200F07CF9E06A218EEA
:10070000C5F3C00200F076F9606B218FC5F30012CB
:1007100000F070F9E06BB4F84010C5F3401200F03F
:1007200069F9606CB4F84810C5F3801200F062F902
:10073000E06CB4F85010EA0900F05CF9E068218A36
:10074000002200F057F9012000F032F8E068218A19
:10075000012200F04FF9012000F02AF8E068218A18
:10076000002200F047F90120BDE8B04000F020B8B9
:10077000B0B50A78002A08BFB0BD04464D1C07E09A
:10078000D1B220460122FFF72BFF15F8012B5AB1F9
:1007900020780028F4D01028F7D1D1B220460122C9
:1007A000FFF790FFF1E700BFB0BD00007047000009
:1007B000B0B5044600F024F9054640F20000C2F24C
:1007C00000000078611C18BF044400BF00F018F955
:1007D000401BA042FAD3B0BD2DE9F04F82B00E68A5
:1007E000002E00F0038141F20042C4F20102042312
:1007F00040F2004E904208BF03234FF6FF7CC4F244
:10080000010E009300240123C1F2100C4FF0000AE6
:100810004FF0000949E000BF012704F00C030F224C
:100820009A402BEA020207FA03F34FEA9A051A43A9
:1008300046F82520D1F804B040F20C455FEACB22FF
:10084000DEF8082054BF22EA080242EA0802C4F295
:100850000105CEF808202A685FEA8B2354BF22EAFC
:10086000080242EA08022A605FEA8B33DEF80420BD
:1008700054BF22EA080242EA08025FEACB33CEF80C
:100880000420DEF800204FF0010354BF22EA0802E2
:1008900042EA0802CEF800200E680AF1010A36FA90
:1008A0000AF204F1040400F0A18003FA0AF816EA3F
:1008B000080FF1D04E68664512DC122E56D8DFE8DC
:1008C00006F0350B45495555555555555555555512
:1008D0005555554D510000BFD1F80C9046E000BF72
:1008E0004FF6FF72C1F2210296420FDC0022C1F2E4
:1008F000110296421AD00022C1F21202964215D07D
:100900000022C1F22102964210D02FE00022C1F253
:10091000220296420AD00022C1F23102964205D04C
:100920000022C1F23202964220D100BF8A684AB149
:10093000012A14BFC0F81480C0F810804FF00809D5
:1009400014E000BF4FF0040910E000BFCA6802F1D4
:1009500008090BE04FF0000908E000BFCA6802F187
:10096000040903E0CA6802F10C0900BF22460646EA
:10097000BAF1080F24BF203A043637680F25954096
:1009800027EA050509FA02F22A433260CA79D2063B
:100990007FF582AF41F21803C4F202031A68AEF584
:1009A0007E7642F001021A601A6802F0010201929A
:1009B000019A2AF0030256F802B040F60002C4F28F
:1009C0000102904210D040F60042C4F2010290426F
:1009D0003FF422AF41F20002C4F20102009F9042B4
:1009E00008BF022719E700BF002716E702B0BDE8DD
:1009F000F08F0000002A08BF090401617047000061
:100A000040F2DC00C2F200000068704740F20000D3
:100A100040F2DC01C2F20000C2F2000100780A6874
:100A2000104408607047000080B542F20000C4F234
:100A30000200016841F010010160032000F07AF823
:100A40000F2000F005F800F027F8002080BD00001E
:100A500070B540F20006C2F2000640F2080132789A
:100A6000C2F200014FF47A730968B3FBF2F2044654
:100A7000B1FBF2F1084600F027FB0F2C4FF0010507
:100A800008D838B94FF0FF3021460022002500F089
:100A900025F87460284670BD82B041F21800C4F297
:100AA00002000168022241F001010160016801F0C9
:100AB000010101910199416841F080514160406814
:100AC00000F08050009000980420C4F201000168FA
:100AD00062F31A61016002B07047000010B54EF673
:100AE0000C5CCEF2000CDCF80030C3F3022E8EF06A
:100AF0000704042C28BF0424BEF103034FF0FF3E7B
:100B00000EFA04F438BF0023A14399400EFA03F310
:100B10009A43114300F00F0200F160430901043AC7
:100B200003F564436244002848BF02F10C031970C6
:100B300010BD00004EF60C51CEF200010A684FF6CF
:100B4000FF031A4060F30A2242F0806040F0FD701B
:100B5000086070472DE9F04381B0002800F08580DF
:100B600042F20008C4F202080446D8F800000D461C
:100B700000F0070088420CD2D8F8000020F00700EF
:100B80002843C8F80000D8F8000000F00700A84289
:100B90006BD1206841F204098107C4F2020917D51C
:100BA000410705D5D9F8001041F4E061C9F80010FB
:100BB000010705D5D9F8001041F46051C9F80010BB
:100BC000D9F80010A26821F0F0011143C9F8001013
:100BD000C00741D1D8F8000000F00700A8420CD9A6
:100BE000D8F8000020F007002843C8F80000D8F823
:100BF000000000F00700A84237D12068410707D560
:100C0000D9F80010E26821F4E0611143C9F800103E
:100C1000000708D5D9F80000216920F4605040EAA7
:100C2000C100C9F80000D9F8002002F00C00082823
:100C300041F20020C0F27A0050D141F2CE23C2F33B
:100C40008341C0F60003595CD2033BD440F6001048
:100C5000C0F23D00484341E0606802280AD0012804
:100C60002AD159F8041C890308D4012001B0BDE839
:100C7000F08300BF59F8041C8901F6D5D9F800109B
:100C800021F003010843C9F80000FFF7B9FE06464A
:100C900041F28837D9F80000616800F00C00B0EB31
:100CA000810F97D0FFF7ACFE801BB842F2D903202A
:100CB00001B0BDE8F08300BF59F8041C8907D4D502
:100CC000DCE700BFD9F8002041F2CC23C2F3404258
:100CD000C0F600039A5C4843B0FBF2F0D9F800106C
:100CE00041F2BC22C1F30311C0F60002515C40F294
:100CF000080220FA01F140F20400C2F2000000688C
:100D0000C2F200021160FFF7A3FE002001B0BDE8AF
:100D1000F08300002DE9F04182B0002868D004463D
:100D2000007841F20006C007C4F2020625D07068C0
:100D300000F00C0004281BD0706800F00C0008289C
:100D400002D17068C00313D46068002800F0688185
:100D5000B0F5A02F00F07C81B0F5803F00F07C81E1
:100D6000306820F480303060306820F4802076E1F4
:100D70003068800301D56068D0B32078800718D52B
:100D8000706810F00C0F07D0706800F00C00082895
:100D90006ED17068C0036BD43068800702D52069BB
:100DA000012825D13068616920F0F80040EAC100CF
:100DB0003060207800071FD42078400732D4E569DE
:100DC00095B1706800F00C00082840F08F80012D6C
:100DD0000ED07068216A00F480328A4208D1616ABC
:100DE00000F47010884203D1002002B0BDE8F08109
:100DF000012002B0BDE8F081A069002862D0002087
:100E0000C4F242200121C0F88014FFF7F9FD054625
:100E1000706A800700F18C80FFF7F2FD401B02280A
:100E2000F6D92AE1F06910F0805808D1F06940F055
:100E30008050F061F06900F080500090009847F217
:100E40000007C4F200073868C00529D4386840F4A8
:100E500080703860FFF7D4FD054600BF3868C005D4
:100E60001ED4FFF7CDFD401B6428F7D905E100BF74
:100E70002069002840F20000C4F2422000F0828085
:100E800001210160FFF7BCFD054600BF3068800707
:100E90003FF588AFFFF7B4FD401B0228F6D9ECE020
:100EA000E068002800F08080052800F09780012885
:100EB00000F09880306A20F001003062306A20F043
:100EC000040092E00020C4F242200021C0F8801407
:100ED000FFF796FD054600BF706A80077FF56CAF8F
:100EE000FFF78EFD401B0228F6D9C6E00027C4F2AA
:100EF000422700203866FFF783FD022D05460BD1FF
:100F00003068800140F1BE80FFF77AFD401B022867
:100F10004FF00300F4D968E7306880017FF564AFD3
:100F2000FFF76EFD401B02284FF00300F4D95CE789
:100F300040F20800C2F20000006844F6D351C1F24A
:100F40006201A0FB0101480A019000BF00BF0198A7
:100F5000411E002801913FF42FAF00BF0198411EB0
:100F6000002801913FF428AF00BF0198411E0028DE
:100F700001913FF421AF00BF0198411E002801916B
:100F8000E4D119E700210160FFF73AFD054600BFF3
:100F9000306880077FF50DAFFFF732FD401B022858
:100FA0004FF00300F4D920E7306A20F001003062EE
:100FB000306A20F004003062FFF722FD054641F25E
:100FC000883700BF306A800720D5FFF719FD401B26
:100FD000B8424FF00300F5D907E700BF306A40F090
:100FE00004003062306A40F001003062FFF708FD13
:100FF000054641F2883700BF306A800706D4FFF704
:10100000FFFC401BB842F7D937E000BFB8F1000F32
:101010007FF4D5AEF06920F08050F061CFE600BFDC
:10102000306820F480303060306820F480203060F8
:10103000FFF7E6FC054600BF306880037FF59DAEF4
:10104000FFF7DEFC401B64284FF00300F4D9CCE628
:10105000306840F480203060306840F48030306088
:10106000FFF7CEFC054600BF306880033FF585AE34
:10107000FFF7C6FC401B6428F6D9032002B0BDE888
:10108000F08100BF206AB0F5803F05D17168A26889
:1010900021F40031114371607168626A21F47411A6
:1010A00011430843706001203866FFF7A9FC04462D
:1010B000306880013FF598AEFFF7A2FC001B0228C4
:1010C0004FF00300F4D990E6411E0020B0EB116F01
:1010D0001CBF012070474EF21002CEF20002516098
:1010E0004EF62351CEF20001F0230B7007219060E1
:1010F00011607047FEE70000FEE70000FEE7000019
:101100007047000070470000FFF780BC7047000088
:10111000FEE70000A2B0FFF787FC18AC201D2421D9
:10112000FFF7DAF80220189001201C9010201D9083
:10113000002520461F95FFF7EDFD28B1EFF3108045
:1011400072B600BFFEE700BF0F20CDE9130513A85C
:101150000021CDE915551795FFF7FCFC20B1EFF301
:10116000108072B6FEE700BF41F21800C4F2020020
:10117000016840F6000741F0200101600168C4F2F7
:10118000010701F0200118911899016807F58065A1
:1011900041F0080101600168002201F00801189186
:1011A000189901684FF4784441F004010160006827
:1011B0004FF4784100F00400189018982846FFF783
:1011C00019FC38464FF4F85100224FF4F858FFF755
:1011D00011FC18AE189401244FF00209284631463C
:1011E000CDE91944CDF86C90FFF7F6FA3846314650
:1011F000CDE91884CDE91A49FFF7EEFA4FF4806083
:101200004FF4007140F27004CDE9101712904FF4C2
:1012100080704FF40041C2F200044FF480424FF45A
:101220000053CDE90C17CDE90E074FF480504FF471
:10123000006104F11406CDE90835CDE90A25CDE9B0
:101240000007CDE90215CDE90415069030461021BE
:1012500002223B460795FFF71DF90FF2440813A53C
:10126000304600210022FFF791F930464146FFF752
:101270007FFA2278671C38462946FEF7A9FF3046D8
:1012800000210122FFF782F930463946FFF770FA54
:101290002078013020704FF47A70FFF789FADFE789
:1012A00056696E68204E6775000000004C4344206C
:1012B00044656D203A202564000000000000000015
:1012C00000000000010203040607080901020203EE
:1012D0000405060708090A0B0C0D0E0F101000007C
:1012E0000013000800000020100000002801000882
:1012F0001013000810000020D00600004401000870
:1013000001000000100000000024F40000000000B4
:04000005080000ED02
:00000001FF
