:020000040800F2
:10000000C006002089010008851700087D17000838
:100010008117000845020008B11800080000000020
:100020000000000000000000000000008D17000824
:100030004902000800000000891700089117000815
:10004000A3010008A3010008A3010008A301000800
:10005000A3010008A3010008A3010008A3010008F0
:10006000A3010008A3010008A3010008A3010008E0
:10007000A3010008A3010008A3010008A3010008D0
:10008000A3010008A3010008A3010008A3010008C0
:10009000A3010008A3010008A3010008A3010008B0
:1000A000A3010008A3010008A3010008A3010008A0
:1000B000A3010008A3010008A3010008A301000890
:1000C000A3010008A3010008A3010008A301000880
:1000D000A3010008A5180008A3010008A301000857
:1000E000A3010008A3010008A301000800F002F822
:1000F00000F03AF80AA090E8000C82448344AAF188
:100100000107DA4501D100F02FF8AFF2090EBAE885
:100110000F0013F0010F18BFFB1A43F0010318473B
:10012000CC180000EC180000103A24BF78C878C141
:10013000FAD8520724BF30C830C144BF04680C60ED
:10014000704700000023002400250026103A28BF35
:1001500078C1FBD8520728BF30C148BF0B60704739
:100160001FB51FBD10B510BD00F031F81146FFF7E7
:10017000F7FF01F09FFB00F04FF803B4FFF7F2FF29
:1001800003BC00F057F800000948804709480047C1
:10019000FEE7FEE7FEE7FEE7FEE7FEE7FEE7FEE737
:1001A000FEE7FEE704480549054A064B7047000094
:1001B00095170008ED000008C0000020C0060020D0
:1001C000C0020020C002002070477047704775468B
:1001D00000F02CF8AE4605006946534620F00700B3
:1001E000854618B020B5FFF7DDFFBDE820404FF091
:1001F00000064FF000074FF000084FF0000BAC4630
:10020000ACE8C009ACE8C009ACE8C009ACE8C0097A
:1002100021F007018D46704710B50446AFF300800A
:100220002046BDE81040FFF7A8BF00000048704717
:100230001000002001491820ABBEFEE72600020096
:1002400070470000FEE7000070470000014690F88C
:100250002100022816D10868D1E90FC3026822F0F4
:100260000E020260026822F001020260012000FA20
:1002700003F2CCF8042081F821000020002281F84C
:1002800020207047042088630120002281F820206C
:100290007047000080B590F82110022924D102682F
:1002A000116821F00E0111602F211368C4F20201C0
:1002B0008A4240F20401C4F2020123F001031360F8
:1002C00016DD3023C4F202039A421DD04423C4F247
:1002D00002039A421CD05823C4F202039A421DD151
:1002E0004FF4803322E000BF04218163012080BDF0
:1002F0000823C4F202039A420ED01C23C4F2020364
:100300009A420BD1102311E04FF480730EE000BF2E
:100310004FF480530AE000BF012307E001F1680CAD
:100320004FF08073624508BF4FF480130B600121CA
:1003300080F82110426B002180F820100AB190470C
:100340000021084680BD00002DE9F04F82B00E6804
:10035000002E00F0038141F20042C4F201020423A6
:1003600040F2004E904208BF03234FF6FF7CC4F2D8
:10037000010E009300240123C1F2100C4FF0000A7B
:100380004FF0000949E000BF012704F00C030F22E1
:100390009A402BEA020207FA03F34FEA9A051A433E
:1003A00046F82520D1F804B040F20C455FEACB2294
:1003B000DEF8082054BF22EA080242EA0802C4F22A
:1003C0000105CEF808202A685FEA8B2354BF22EA91
:1003D000080242EA08022A605FEA8B33DEF8042052
:1003E00054BF22EA080242EA08025FEACB33CEF8A1
:1003F0000420DEF800204FF0010354BF22EA080277
:1004000042EA0802CEF800200E680AF1010A36FA24
:100410000AF204F1040400F0A18003FA0AF816EAD3
:10042000080FF1D04E68664512DC122E56D8DFE870
:1004300006F0350B454955555555555555555555A6
:100440005555554D510000BFD1F80C9046E000BF06
:100450004FF6FF72C1F2210296420FDC0022C1F278
:10046000110296421AD00022C1F21202964215D011
:100470000022C1F22102964210D02FE00022C1F2E8
:10048000220296420AD00022C1F23102964205D0E1
:100490000022C1F23202964220D100BF8A684AB1DE
:1004A000012A14BFC0F81480C0F810804FF008096A
:1004B00014E000BF4FF0040910E000BFCA6802F169
:1004C00008090BE04FF0000908E000BFCA6802F11C
:1004D000040903E0CA6802F10C0900BF224606467F
:1004E000BAF1080F24BF203A043637680F2595402B
:1004F00027EA050509FA02F22A433260CA79D206D0
:100500007FF582AF41F21803C4F202031A68AEF518
:100510007E7642F001021A601A6802F0010201922E
:10052000019A2AF0030256F802B040F60002C4F223
:100530000102904210D040F60042C4F20102904203
:100540003FF422AF41F20002C4F20102009F904248
:1005500008BF022719E700BF002716E702B0BDE871
:10056000F08F0000002A08BF0904016170470000F5
:1005700040F2BC00C2F200000068704740F2000088
:1005800040F2BC01C2F20000C2F2000100780A6829
:10059000104408607047000080B542F20000C4F2C9
:1005A0000200016841F010010160032000F08EF8A4
:1005B0000F2000F005F800F027F8002080BD0000B3
:1005C00070B540F20006C2F2000640F2080132782F
:1005D000C2F200014FF47A730968B3FBF2F20446E9
:1005E000B1FBF2F1084600F063FB0F2C4FF0010560
:1005F00008D838B94FF0FF3021460022002500F01E
:1006000039F87460284670BD82B041F21800C4F217
:1006100002000168022241F001010160016801F05D
:10062000010101910199416841F0805141604068A8
:1006300000F08050009000980420C4F2010001688E
:1006400062F31A61016002B070470000002848BFE1
:100650007047C1B200F01F00012202FA00F04EF212
:100660000012CEF2000242EAD10121F0030108603B
:100670007047000010B54EF60C5CCEF2000CDCF8B2
:100680000030C3F3022E8EF00704042C28BF04248C
:10069000BEF103034FF0FF3E0EFA04F438BF00230F
:1006A000A14399400EFA03F39A43114300F00F025D
:1006B00000F160430901043A03F5644362440028F1
:1006C00048BF02F10C03197010BD00004EF60C512A
:1006D000CEF200010A684FF6FF031A4060F30A22C7
:1006E00042F0806040F0FD70086070472DE9F043F3
:1006F00081B0002800F0858042F20008C4F20208B0
:100700000446D8F800000D4600F0070088420CD2DD
:10071000D8F8000020F007002843C8F80000D8F8F7
:10072000000000F00700A8426BD1206841F20409E4
:100730008107C4F2020917D5410705D5D9F8001081
:1007400041F4E061C9F80010010705D5D9F800109F
:1007500041F46051C9F80010D9F80010A26821F0E6
:10076000F0011143C9F80010C00741D1D8F80000CA
:1007700000F00700A8420CD9D8F8000020F00700CC
:100780002843C8F80000D8F8000000F00700A8428D
:1007900037D12068410707D5D9F80010E26821F465
:1007A000E0611143C9F80010000708D5D9F800002E
:1007B000216920F4605040EAC100C9F80000D9F86E
:1007C000002002F00C00082841F20020C0F27A005C
:1007D00050D141F6DC13C2F38341C0F60003595CEB
:1007E000D2033BD440F60010C0F23D00484341E044
:1007F000606802280AD001282AD159F8041C89030C
:1008000008D4012001B0BDE8F08300BF59F8041CF2
:100810008901F6D5D9F8001021F003010843C9F881
:100820000000FFF7A5FE064641F28837D9F8000020
:10083000616800F00C00B0EB810F97D0FFF798FED5
:10084000801BB842F2D9032001B0BDE8F08300BF9D
:1008500059F8041C8907D4D5DCE700BFD9F800207B
:1008600041F6DA13C2F34042C0F600039A5C4843F3
:10087000B0FBF2F0D9F8001041F6C212C1F3031137
:10088000C0F60002515C40F2080220FA01F140F289
:100890000400C2F200000068C2F200021160FFF71B
:1008A0008FFE002001B0BDE8F083000040F2080098
:1008B00041F20401C2F20000C4F2020100680968BA
:1008C00041F6D212C1F30221C0F60002515CC840C9
:1008D0007047000040F2080041F20401C2F200003B
:1008E000C4F202010068096841F6D212C1F3C221C4
:1008F000C0F60002515CC840704700002DE9F0418D
:1009000082B0002868D00446007841F20006C00793
:10091000C4F2020625D0706800F00C0004281BD039
:10092000706800F00C00082802D17068C00313D46E
:100930006068002800F06881B0F5A02F00F07C818D
:10094000B0F5803F00F07C81306820F4803030606A
:10095000306820F4802076E13068800301D560683B
:10096000D0B32078800718D5706810F00C0F07D02E
:10097000706800F00C0008286ED17068C0036BD45A
:100980003068800702D52069012825D13068616967
:1009900020F0F80040EAC1003060207800071FD442
:1009A0002078400732D4E56995B1706800F00C00FA
:1009B000082840F08F80012D0ED07068216A00F465
:1009C00080328A4208D1616A00F47010884203D1F3
:1009D000002002B0BDE8F081012002B0BDE8F08146
:1009E000A069002862D00020C4F242200121C0F892
:1009F0008014FFF7BDFD0546706A800700F18C800A
:100A0000FFF7B6FD401B0228F6D92AE1F06910F085
:100A1000805808D1F06940F08050F061F06900F032
:100A200080500090009847F20007C4F20007386831
:100A3000C00529D4386840F480703860FFF798FD0D
:100A4000054600BF3868C0051ED4FFF791FD401B66
:100A50006428F7D905E100BF2069002840F20000B2
:100A6000C4F2422000F0828001210160FFF780FD86
:100A7000054600BF306880073FF588AFFFF778FD77
:100A8000401B0228F6D9ECE0E068002800F08080E6
:100A9000052800F09780012800F09880306A20F047
:100AA00001003062306A20F0040092E00020C4F2BD
:100AB00042200021C0F88014FFF75AFD054600BF10
:100AC000706A80077FF56CAFFFF752FD401B02286C
:100AD000F6D9C6E00027C4F2422700203866FFF7A7
:100AE00047FD022D05460BD13068800140F1BE80E4
:100AF000FFF73EFD401B02284FF00300F4D968E7E2
:100B0000306880017FF564AFFFF732FD401B02289B
:100B10004FF00300F4D95CE740F20800C2F2000095
:100B2000006844F6D351C1F26201A0FB0101480AFA
:100B3000019000BF00BF0198411E002801913FF4C1
:100B40002FAF00BF0198411E002801913FF428AF4C
:100B500000BF0198411E002801913FF421AF00BF62
:100B60000198411E00280191E4D119E7002101609C
:100B7000FFF7FEFC054600BF306880077FF50DAF2C
:100B8000FFF7F6FC401B02284FF00300F4D920E7E2
:100B9000306A20F001003062306A20F004003062D8
:100BA000FFF7E6FC054641F2883700BF306A800750
:100BB00020D5FFF7DDFC401BB8424FF00300F5D90C
:100BC00007E700BF306A40F004003062306A40F04E
:100BD00001003062FFF7CCFC054641F2883700BFC8
:100BE000306A800706D4FFF7C3FC401BB842F7D930
:100BF00037E000BFB8F1000F7FF4D5AEF06920F008
:100C00008050F061CFE600BF306820F48030306063
:100C1000306820F480203060FFF7AAFC054600BF52
:100C2000306880037FF59DAEFFF7A2FC401B64286F
:100C30004FF00300F4D9CCE6306840F480203060F7
:100C4000306840F480303060FFF792FC054600BF0A
:100C5000306880033FF585AEFFF78AFC401B6428AF
:100C6000F6D9032002B0BDE8F08100BF206AB0F5DC
:100C7000803F05D17168A26821F400311143716091
:100C80007168626A21F47411114308437060012095
:100C90003866FFF76DFC0446306880013FF598AE7A
:100CA000FFF766FC001B02284FF00300F4D990E622
:100CB000411E0020B0EB116F1CBF012070474EF2A7
:100CC0001002CEF2000251604EF62351CEF2000126
:100CD000F0230B700721906011607047704700008F
:100CE00070470000B0B582B0044600680168C36870
:100CF000426901F02F05202D03F0200506D12DB10A
:100D0000204602B0BDE8B04000F04CBD5FEA017C77
:100D10001EBF02F0010E03F4907212EB0E0253D1CB
:100D2000226B012A05D111F0100218BF13F0100236
:100D300036D10A0622D513F080021FD094F8411054
:100D400021293FD1A168B1F5805F03D12169002934
:100D500000F07082216A4A1C226209784160E18CAD
:100D600001390A04E1842DD1C16821F08001C160FC
:100D7000C16841F04001C16002B0B0BD490621D553
:100D800013F040011ED0C16821F04001C160202154
:100D9000204684F8411002B0BDE8B04000F0ECBC41
:100DA0000021019101680191416801910199406917
:100DB000400613D4A08DE18DE28D002A18BF884231
:100DC00040F0BA8102B0B0BDCA0718BF13F48072F8
:100DD00040F0B6804A0700F1B980BEE0E06B0168E0
:100DE00049688AB2002AEDD0A38D9A42EAD2E18501
:100DF0008069202800F09C80206850E8030F21685B
:100E000020F4807041E80302DAB1206850E8030F53
:100E1000216820F4807041E8030292B1206850E814
:100E2000030F216820F4807041E803024AB1206872
:100E300050E8030F216820F4807041E80302002A83
:100E4000DAD1206850E8050F216820F0010041E860
:100E50000502DAB1206850E8050F216820F0010092
:100E600041E8050292B1206850E8050F216820F0A2
:100E7000010041E805024AB1206850E8050F2168E9
:100E800020F0010041E80502002ADAD1206850E88C
:100E9000050F216820F0400041E80502DAB1206822
:100EA00050E8050F216820F0400041E8050292B1AA
:100EB000206850E8050F216820F0400041E8050255
:100EC0004AB1206850E8050F216820F0400041E851
:100ED0000502002ADAD1202084F842000020206395
:100EE000206850E8030F216820F0100041E8030259
:100EF000DAB1206850E8030F216820F0100041E8C3
:100F0000030292B1206850E8030F216820F010001E
:100F100041E803024AB1206850E8030F216820F03D
:100F2000100041E80302002ADAD1E06BFFF78EF9E6
:100F300002206063A08DE18D401A81B2204674E1E9
:100F4000626C42F0010262644A0706D5BEF1000FEE
:100F500003D0626C42F0020262648A0706D5BEF1D9
:100F6000000F03D0626C42F004026264BCF1000F17
:100F700009D545EA0E02B2FA82F2520903D1626C37
:100F800042F008026264626C002A3FF41BAF11F069
:100F9000200118BF002D03D0204600F003FC20687C
:100FA0004069616C00F0400001F00801401800F059
:100FB000B58000BF206850E8030F216820F49070CE
:100FC00041E80302BAB3206850E8030F216820F417
:100FD000907041E8030272B3206850E8030F216863
:100FE00020F4907041E803022AB3206850E8030F10
:100FF000216820F4907041E80302002ADAD11AE057
:10100000206850E8050F216820F0010041E8050242
:10101000DAB1206850E8050F216820F0010041E8AE
:10102000050292B1206850E8050F216820F0010008
:1010300041E805024AB1206850E8050F216820F018
:10104000010041E80502002ADAD1206B012824D1F1
:10105000206850E8030F216820F0100041E80302E7
:10106000DAB1206850E8030F216820F0100041E851
:10107000030292B1206850E8030F216820F01000AD
:1010800041E803024AB1206850E8030F216820F0CC
:10109000100041E80302002ADAD1202084F842003F
:1010A000002020632068406940063FD5206850E852
:1010B000050F216820F0400041E80502DAB1206800
:1010C00050E8050F216820F0400041E8050292B188
:1010D000206850E8050F216820F0400041E8050233
:1010E0004AB1206850E8050F216820F0400041E82F
:1010F0000502002ADAD1E06BC0B141F29971C0F665
:1011000000014163FFF7C6F800283FF45BAEE06BD7
:10111000416B02B0BDE8B040084700BF2046FFF772
:10112000DFFD0020606402B0B0BD00BF204602B009
:10113000BDE8B040FFF7D4BD401A216851E8031F55
:10114000226821F4907142E80313DBB1216851E871
:10115000031F226821F4907142E8031393B12168C0
:1011600051E8031F226821F4907142E803134BB148
:10117000216851E8031F226821F4907142E80313AB
:10118000002BDAD1216851E8051F226821F0010106
:1011900042E80513DBB1216851E8051F226821F000
:1011A000010142E8051393B1216851E8051F226847
:1011B00021F0010142E805134BB1216851E8051FF8
:1011C000226821F0010142E80513002BDAD1202129
:1011D00084F8421000212163216851E8031F22682E
:1011E00021F0100142E80313DBB1216851E8031F2D
:1011F000226821F0100142E8031393B1216851E8FD
:10120000031F226821F0100142E803134BB121684B
:1012100051E8031F226821F0100142E80313002B5C
:10122000DAD1022281B22046626302B0BDE8B0404A
:10123000FFF754BD216A31F8022B6FF35F22426041
:1012400021628CE5002804BF0120704710B50446D8
:1012500090F8410028B9002084F84000204600F0B2
:1012600063F8242084F841002068D4E90212C3689E
:1012700023F40053C360036923F440531A4302610B
:10128000D4E904231143C268194341F20C639A4321
:101290001143C1604169A26921F44071114343F6D1
:1012A0000002C4F201029042416103D0FFF7FEFA4E
:1012B00002E000BFFFF70EFB62681921484391006E
:1012C000B0FBF1F048F21F51C5F2EB11A0FB012376
:1012D0005A094FF69C73C0F6FF7302FB03003223DA
:1012E00003EB0010A0FB0101F02303EA5113206877
:1012F00003EB0212C1F3431111448160016921F42F
:1013000090410161416921F02A014161C16841F4C4
:101310000051C16000202021606484F8411084F8ED
:101320004210606310BD000070B586B040F6000446
:10133000C4F20104006804F5405100268842049676
:1013400002D006B070BD00BF41F21800C4F2020026
:10135000016802AD41F480410160016801F48041FF
:1013600001910199016841F004010160006829467A
:1013700000F00400019001984FF4007002900220E8
:101380000390032005902046FEF7DEFF4FF48060B7
:10139000CDE90206204629460496FEF7D5FF252012
:1013A00000210022FFF766F92520FFF74FF906B06C
:1013B00070BD000090F84230202B1CBF0220704707
:1013C00000294FF0010318BF002A01D118467047C9
:1013D00000230363816222218285C285436480F8F1
:1013E00042100169006819B1C16841F48071C1609F
:1013F0004169002341F001014161C16841F02001D0
:10140000C1601846704700002DE9F04140F60044E5
:10141000C4F20104006804F53051884218BFBDE8E9
:10142000F08140F27005C2F200052E1D30462946BB
:101430000122FFF7BFFF304629460122642300F056
:101440005FF82878A0F14201CAB2C90141EA52010D
:10145000C9B2082921D840F22512CA40D2071CD0AF
:101460001BA0425C1DA0465C1FA0475C21A010F899
:10147000018020461021FFF775F8204620213246D2
:10148000FFF770F8204640213A46FFF76BF82046F8
:1014900080214246FFF766F82878532816D1204667
:1014A00010210022FFF75EF8204620210022FFF7DE
:1014B00059F8204640210022FFF754F820468021A9
:1014C0000022BDE8F041FFF74DB800BFBDE8F08154
:1014D0000001010101000101010000000100000004
:1014E00000010000000000000001010101010101F4
:1014F00000000000010000000000000001000000EA
:101500002DE9F04381B0044690F84100202840F0D6
:10151000B180884600294FF0010000F0D6801646C1
:10152000002A00F0D2800020606421201D4684F84B
:101530004100FFF71DF8A684E684A1680646B1F5D0
:10154000805F03D12069002800F0988047464FF063
:101550000008E18C2068002900F0968005F101095F
:101560000BE000BF47B317F8011B4160E18C013964
:10157000E184E18C002900F0878001680906F1D43C
:10158000B9F1000F0AD0EDB1FEF7F2FF801BA842BF
:1015900018D8206801680906F6D5E3E7016809064E
:1015A000E0D4016809065CBF01685FEA0161D9D433
:1015B00001680906F2D5D5E738F8021B00276FF35A
:1015C0005F21D2E7206850E8030F216820F4D07033
:1015D00041E80302BAB3206850E8030F216820F401
:1015E000D07041E8030272B3206850E8030F21680D
:1015F00020F4D07041E803022AB3206850E8030FBA
:10160000216820F4D07041E80302002ADAD11AE000
:10161000206850E8050F216820F0010041E805022C
:10162000DAB1206850E8050F216820F0010041E898
:10163000050292B1206850E8050F216820F00100F2
:1016400041E805024AB1206850E8050F216820F002
:10165000010041E80502002ADAD1202084F8410087
:1016600084F84200002084F84000032001B0BDE867
:10167000F08300BF022001B0BDE8F0830027E18CB9
:10168000206800297FF46AAF0168490619D4FDB1CA
:10169000691C0DD10168490613D4016849065CBF75
:1016A00001685FEA41610CD401684906F2D508E09F
:1016B000FEF75EFF801BA8420AD82068006840063B
:1016C000F6D5202084F84100002001B0BDE8F08369
:1016D000206850E8030F216820F4D07041E803022D
:1016E000002A3ED0206850E8030F216820F4D07013
:1016F00041E80302AAB3206850E8030F216820F4F0
:10170000D07041E8030262B3206850E8030F2168FB
:1017100020F4D07041E80302002AD9D121E000BFB3
:10172000206850E8050F216820F0010041E805021B
:10173000002A3FF492AF206850E8050F216820F09E
:10174000010041E80502002A3FF487AF206850E815
:10175000050F216820F0010041E80502002A3FF44E
:101760007CAF206850E8050F216820F0010041E8B7
:101770000502002AD4D170E770470000FEE70000A0
:10178000FEE70000FEE70000704700007047000021
:10179000FEF7F4BE70470000406A0021C185C18495
:1017A000FFF79EBA81B090F84210222921D18368B8
:1017B0000246B3F5805F09D152F8281F52F8183C51
:1017C000002B63D003685B680AE000BF52F8281F53
:1017D00013B90369002BF5D003685B6803F07F033E
:1017E0000B70116801311160C18D01390A04C18586
:1017F00002D001B0704700BF0168CA6822F0200221
:10180000CA60CA6822F48072CA604A6922F0010282
:101810004A61202180F8421000214163026B012AB5
:101820003CD10163016851E8031F026821F01001F7
:1018300042E80313DBB1016851E8031F026821F09D
:10184000100142E8031393B1016851E8031F0268D5
:1018500021F0100142E803134BB1016851E8031F66
:10186000026821F0100142E80313002BDAD101686D
:101870000A68D20606D5002200920A6800924968DA
:1018800000910099818D01B0FFF728BA0268526873
:101890006FF35F2221F8022B8162A5E701B0FFF709
:1018A000B3BD000040F27400C2F20000FFF71ABAA4
:1018B000FEE7000090B0FEF76FFE00240120CDE9A6
:1018C0000B44CDE9094406900A904FF4E0104FF420
:1018D000803102250F9006A8CDE90714CDE90D51FE
:1018E000FFF70CF820B1EFF3108072B6FEE700BFEF
:1018F0000F20CDE901054FF48060CDE9040401A873
:1019000002210394FEF7F2FE20B1EFF3108072B6CD
:10191000FEE700BF41F21800C4F20200016840F681
:10192000004441F0200101600168C4F2010401F0AB
:101930002001069106990168002241F0040101602E
:101940000168F02501F0040106910699016800265E
:1019500041F0080101600068F02100F008000690E5
:1019600006982046FEF7FEFD0120CDE90700022083
:10197000099006A920460695FEF7E6FC04F53051CD
:1019800040F27004C2F20004204640F8041F4FF4F5
:10199000E1310C22C0E90116C0E90366C0E9052661
:1019A000C661FFF74FFC28B1EFF3108072B600BF9D
:1019B000FEE700BF201D21460122FFF7FBFC00BF10
:1019C000FEE700000000000000000102030406071B
:1019D00008090000000001020304010202030405DB
:1019E000060708090A0B0C0D0E0F1010101A00083C
:1019F000000000201000000028010008201A000844
:101A000010000020B00600004401000800000000A3
:101A100001000000100000000024F400000000009D
:04000005080000ED02
:00000001FF
