:020000040800F2
:10000000F006002089010008D50D0008DD0B00086E
:10001000D10D000891020008E90D00080000000061
:10002000000000000000000000000000DD0D0008DE
:100030009502000800000000D90D0008E10D00083D
:10004000A3010008A3010008A3010008A301000800
:10005000A3010008A3010008A3010008A3010008F0
:10006000A3010008A3010008A3010008A3010008E0
:10007000A3010008A3010008A3010008A3010008D0
:10008000A3010008A3010008A3010008A3010008C0
:10009000A3010008A3010008A3010008A3010008B0
:1000A000A3010008A3010008A3010008A3010008A0
:1000B000A3010008A3010008A3010008A301000890
:1000C000A3010008A3010008A3010008A301000880
:1000D000A3010008A3010008A3010008A301000870
:1000E000A3010008A3010008A301000800F002F822
:1000F00000F03AF80AA090E8000C82448344AAF188
:100100000107DA4501D100F02FF8AFF2090EBAE885
:100110000F0013F0010F18BFFB1A43F0010318473B
:100120002C0E00004C0E0000103A24BF78C878C195
:10013000FAD8520724BF30C830C144BF04680C60ED
:10014000704700000023002400250026103A28BF35
:1001500078C1FBD8520728BF30C148BF0B60704739
:100160001FB51FBD10B510BD00F058F81146FFF7C0
:10017000F7FF00F03BFE00F076F803B4FFF7F2FF64
:1001800003BC00F07DF8000009488047094800479B
:10019000FEE7FEE7FEE7FEE7FEE7FEE7FEE7FEE737
:1001A000FEE7FEE704480549054A064B7047000094
:1001B000E50D0008ED000008F0000020F00600202A
:1001C000F0020020F00200204FF0000200B51346BC
:1001D00094469646203922BFA0E80C50A0E80C5067
:1001E000B1F12001BFF4F7AF090728BFA0E80C5018
:1001F00048BF0CC05DF804EB890028BF40F8042B11
:1002000008BF704748BF20F8022B11F0804F18BF7D
:1002100000F8012B7047704770477047754600F033
:100220002BF8AE4605006946534620F00700854688
:1002300018B020B5FFF7B6FFBDE820404FF000062C
:100240004FF000074FF000084FF0000BAC46ACE851
:10025000C009ACE8C009ACE8C009ACE8C00921F0AD
:1002600007018D46704710B50446AFF30080204665
:10027000BDE81040FFF781BF00487047280000200C
:1002800001491820ABBEFEE72600020070470000BF
:10029000FEE7000070470000B0B5044600F024F906
:1002A000054640F21800C2F200000078611C18BF39
:1002B000044400BF00F018F9401BA042FAD3B0BDBF
:1002C0002DE9F04F82B00E68002E00F0038141F25C
:1002D0000042C4F20102042340F2004E904208BFE3
:1002E00003234FF6FF7CC4F2010E00930024012388
:1002F000C1F2100C4FF0000A4FF0000949E000BFB6
:10030000012704F00C030F229A402BEA020207FA9D
:1003100003F34FEA9A051A4346F82520D1F804B0B2
:1003200040F20C455FEACB22DEF8082054BF22EAF7
:10033000080242EA0802C4F20105CEF808202A6841
:100340005FEA8B2354BF22EA080242EA08022A60CD
:100350005FEA8B33DEF8042054BF22EA080242EA47
:1003600008025FEACB33CEF80420DEF800204FF01D
:10037000010354BF22EA080242EA0802CEF8002034
:100380000E680AF1010A36FA0AF204F1040400F0D8
:10039000A18003FA0AF816EA080FF1D04E68664504
:1003A00012DC122E56D8DFE806F0350B45495555BC
:1003B00055555555555555555555554D510000BF39
:1003C000D1F80C9046E000BF4FF6FF72C1F2210257
:1003D00096420FDC0022C1F2110296421AD000228E
:1003E000C1F21202964215D00022C1F221029642B9
:1003F00010D02FE00022C1F2220296420AD0002241
:10040000C1F23102964205D00022C1F23202964278
:1004100020D100BF8A684AB1012A14BFC0F81480F5
:10042000C0F810804FF0080914E000BF4FF0040935
:1004300010E000BFCA6802F108090BE04FF00009A4
:1004400008E000BFCA6802F1040903E0CA6802F1CB
:100450000C0900BF22460646BAF1080F24BF203A15
:10046000043637680F25954027EA050509FA02F298
:100470002A433260CA79D2067FF582AF41F218036F
:10048000C4F202031A68AEF57E7642F001021A60E9
:100490001A6802F001020192019A2AF0030256F84A
:1004A00002B040F60002C4F20102904210D040F6C1
:1004B0000042C4F2010290423FF422AF41F2000236
:1004C000C4F20102009F904208BF022719E700BF53
:1004D000002716E702B0BDE8F08F0000002A08BF31
:1004E000090401617047000040F2EC00C2F2000014
:1004F0000068704740F2180040F2EC01C2F20000C0
:10050000C2F2000100780A681044086070470000D9
:1005100080B542F20000C4F20200016841F010010F
:100520000160032000F07AF80F2000F005F800F0D9
:1005300027F8002080BD000070B540F21806C2F216
:10054000000640F220013278C2F200014FF47A73C3
:100550000968B3FBF2F20446B1FBF2F1084600F081
:1005600027FB0F2C4FF0010508D838B94FF0FF30AA
:1005700021460022002500F025F87460284670BD51
:1005800082B041F21800C4F202000168022241F078
:1005900001010160016801F00101019101994168C7
:1005A00041F080514160406800F080500090009818
:1005B0000420C4F20100016862F31A61016002B014
:1005C0007047000010B54EF60C5CCEF2000CDCF863
:1005D0000030C3F3022E8EF00704042C28BF04243D
:1005E000BEF103034FF0FF3E0EFA04F438BF0023C0
:1005F000A14399400EFA03F39A43114300F00F020E
:1006000000F160430901043A03F5644362440028A1
:1006100048BF02F10C03197010BD00004EF60C51DA
:10062000CEF200010A684FF6FF031A4060F30A2277
:1006300042F0806040F0FD70086070472DE9F043A3
:1006400081B0002800F0858042F20008C4F2020860
:100650000446D8F800000D4600F0070088420CD28E
:10066000D8F8000020F007002843C8F80000D8F8A8
:10067000000000F00700A8426BD1206841F2040995
:100680008107C4F2020917D5410705D5D9F8001032
:1006900041F4E061C9F80010010705D5D9F8001050
:1006A00041F46051C9F80010D9F80010A26821F097
:1006B000F0011143C9F80010C00741D1D8F800007B
:1006C00000F00700A8420CD9D8F8000020F007007D
:1006D0002843C8F80000D8F8000000F00700A8423E
:1006E00037D12068410707D5D9F80010E26821F416
:1006F000E0611143C9F80010000708D5D9F80000DF
:10070000216920F4605040EAC100C9F80000D9F81E
:10071000002002F00C00082841F20020C0F27A000C
:1007200050D140F63C73C2F38341C0F60003595CDC
:10073000D2033BD440F60010C0F23D00484341E0F4
:10074000606802280AD001282AD159F8041C8903BC
:1007500008D4012001B0BDE8F08300BF59F8041CA3
:100760008901F6D5D9F8001021F003010843C9F832
:100770000000FFF7B9FE064641F28837D9F80000BD
:10078000616800F00C00B0EB810F97D0FFF7ACFE72
:10079000801BB842F2D9032001B0BDE8F08300BF4E
:1007A00059F8041C8907D4D5DCE700BFD9F800202C
:1007B00040F63A73C2F34042C0F600039A5C4843E5
:1007C000B0FBF2F0D9F8001040F62A72C1F3031121
:1007D000C0F60002515C40F2200220FA01F140F222
:1007E0001C00C2F200000068C2F200021160FFF7B4
:1007F000A3FE002001B0BDE8F08300002DE9F04128
:1008000082B0002868D00446007841F20006C00794
:10081000C4F2020625D0706800F00C0004281BD03A
:10082000706800F00C00082802D17068C00313D46F
:100830006068002800F06881B0F5A02F00F07C818E
:10084000B0F5803F00F07C81306820F4803030606B
:10085000306820F4802076E13068800301D560683C
:10086000D0B32078800718D5706810F00C0F07D02F
:10087000706800F00C0008286ED17068C0036BD45B
:100880003068800702D52069012825D13068616968
:1008900020F0F80040EAC1003060207800071FD443
:1008A0002078400732D4E56995B1706800F00C00FB
:1008B000082840F08F80012D0ED07068216A00F466
:1008C00080328A4208D1616A00F47010884203D1F4
:1008D000002002B0BDE8F081012002B0BDE8F08147
:1008E000A069002862D00020C4F242200121C0F893
:1008F0008014FFF7F9FD0546706A800700F18C80CF
:10090000FFF7F2FD401B0228F6D92AE1F06910F04A
:10091000805808D1F06940F08050F061F06900F033
:1009200080500090009847F20007C4F20007386832
:10093000C00529D4386840F480703860FFF7D4FDD2
:10094000054600BF3868C0051ED4FFF7CDFD401B2B
:100950006428F7D905E100BF2069002840F20000B3
:10096000C4F2422000F0828001210160FFF7BCFD4B
:10097000054600BF306880073FF588AFFFF7B4FD3C
:10098000401B0228F6D9ECE0E068002800F08080E7
:10099000052800F09780012800F09880306A20F048
:1009A00001003062306A20F0040092E00020C4F2BE
:1009B00042200021C0F88014FFF796FD054600BFD5
:1009C000706A80077FF56CAFFFF78EFD401B022831
:1009D000F6D9C6E00027C4F2422700203866FFF7A8
:1009E00083FD022D05460BD13068800140F1BE80A9
:1009F000FFF77AFD401B02284FF00300F4D968E7A7
:100A0000306880017FF564AFFFF76EFD401B022860
:100A10004FF00300F4D95CE740F22000C2F200007E
:100A2000006844F6D351C1F26201A0FB0101480AFB
:100A3000019000BF00BF0198411E002801913FF4C2
:100A40002FAF00BF0198411E002801913FF428AF4D
:100A500000BF0198411E002801913FF421AF00BF63
:100A60000198411E00280191E4D119E7002101609D
:100A7000FFF73AFD054600BF306880077FF50DAFF0
:100A8000FFF732FD401B02284FF00300F4D920E7A6
:100A9000306A20F001003062306A20F004003062D9
:100AA000FFF722FD054641F2883700BF306A800714
:100AB00020D5FFF719FD401BB8424FF00300F5D9D0
:100AC00007E700BF306A40F004003062306A40F04F
:100AD00001003062FFF708FD054641F2883700BF8C
:100AE000306A800706D4FFF7FFFC401BB842F7D9F5
:100AF00037E000BFB8F1000F7FF4D5AEF06920F009
:100B00008050F061CFE600BF306820F48030306064
:100B1000306820F480203060FFF7E6FC054600BF17
:100B2000306880037FF59DAEFFF7DEFC401B642834
:100B30004FF00300F4D9CCE6306840F480203060F8
:100B4000306840F480303060FFF7CEFC054600BFCF
:100B5000306880033FF585AEFFF7C6FC401B642874
:100B6000F6D9032002B0BDE8F08100BF206AB0F5DD
:100B7000803F05D17168A26821F400311143716092
:100B80007168626A21F47411114308437060012096
:100B90003866FFF7A9FC0446306880013FF598AE3F
:100BA000FFF7A2FC001B02284FF00300F4D990E6E7
:100BB000411E0020B0EB116F1CBF012070474EF2A8
:100BC0001002CEF2000251604EF62351CEF2000127
:100BD000F0230B700721906011607047FEE7000062
:100BE000017000994260029AC16004994261069ABC
:100BF000C161089942620C9AC16201994263039AE9
:100C0000018205990283079A0184099902850B9A4A
:100C100001860D9903810287A0F8401070470000FB
:100C200070B50DF1100EDDE9075C9EE850400160E3
:100C300083600661856182808481A0F814E0A0F859
:100C40001CC070BD2DE9F04381B0130940F2473755
:100C50007B43DB0C42F2107703FB172242F2C507FD
:100C600093B2DB087B431F0D4FF47A7307FB13220B
:100C70000C4691B2890841F27B4301FB03F6710CEB
:100C8000642301FB13220546D0B2CD2148434FEA2D
:100C9000D02909EB89032868A988A2EB430801221F
:100CA000FFF71CFC2046394600F03CF80520FFF712
:100CB000F3FA2868A9880022FFF710FCA868A98920
:100CC0000122FFF70BFCC6F34741204600F02AF84B
:100CD0000520FFF7E1FAA868A9890022FFF7FEFBCB
:100CE0002869A98A0122FFF7F9FB2046494600F04E
:100CF00019F80520FFF7D0FA2869A98A0022FFF722
:100D0000EDFBA869A98B0122FFF7E8FB5FFA88F1E8
:100D1000204600F007F8052001B0BDE8F043FFF7DA
:100D2000BBBA0000B0B504460078012810D00028F6
:100D300018BFB0BD40F20005C2F2000523896A5C0D
:100D400060680D4402F001021946FFF7C7FB0CE092
:100D500040F20002C2F20002551815F80B2F60682D
:100D6000218902F00102FFF7B9FB2A78E068218AA5
:100D7000C2F34002FFF7B2FB2A786069218BC2F30D
:100D80008002FFF7ABFB2A78E069218CC2F3C00236
:100D9000FFF7A4FB2A78606A218DC2F30012FFF7E7
:100DA0009DFB2A78E06A218EC2F34012FFF796FB82
:100DB0002A78606B218FC2F38012FFF78FFB2A78AD
:100DC000E06BB4F84010D209BDE8B040FFF786BB35
:100DD000FEE70000FEE700007047000070470000DB
:100DE000FFF788BB70470000FEE700009EB0FFF7EA
:100DF0008FFB14AC201D2421FFF7E6F9022014908C
:100E00000120189010201990002520461B95FFF70F
:100E1000F5FC28B1EFF3108072B600BFFEE700BF0B
:100E20000F20CDE90F050FA80021CDE9115513952D
:100E3000FFF704FC20B1EFF3108072B6FEE700BFAD
:100E400041F21800C4F20200016840F6000541F0CA
:100E5000040101600168C4F2010501F0040114916C
:100E600014990168002241F00801016000687F21A7
:100E700000F008001490149828467F26FFF72EFBF8
:100E800005F580642046782100224FF07808FFF7AE
:100E900025FB149614AE01274FF0020A284631466E
:100EA000CDE91577CDF85CA0FFF70AFA2046314668
:100EB000CDE91487CDE9167AFFF702FA40F28806E9
:100EC0008020C2F20006CDE90C500820042106F172
:100ED00020074FF040084FF020094FF0100BCDE9EC
:100EE0000251CDE90450384600212A460123CDE9BC
:100EF0000859CDE90A58CDE9005A0695CDF81CB03D
:100F0000FFF76EFE3046214608222346CDE900B4A5
:100F1000CDE90294CDF81080FFF782FE30463946C5
:100F200042F20F72FFF78EFEF8E7000000000000AB
:100F30000000010203040607080901020203040578
:100F4000060708090A0B0C0D0E0F1010700F000891
:100F5000000000202800000028010008980F000869
:100F600028000020C806000044010008000000001E
:100F7000C0F9A4B09992828F8090803F065B406652
:100F80006D7D077F6F7F00000100000010000000F2
:080F90000024F4000000000041
:04000005080000ED02
:00000001FF
