:020000040800F2
:10000000D806002089010008691700082D13000890
:1000100065170008450200087D1700080000000071
:100020000000000000000000000000007117000840
:1000300019060008000000006D1700087517000879
:10004000A3010008A3010008A3010008A301000800
:10005000A3010008A3010008A3010008A3010008F0
:10006000A3010008A3010008A3010008A3010008E0
:10007000A3010008A3010008A3010008A3010008D0
:10008000A3010008A3010008A3010008A3010008C0
:10009000A3010008A3010008A3010008A3010008B0
:1000A000A3010008A3010008A3010008A3010008A0
:1000B000A3010008A3010008A3010008A301000890
:1000C000A3010008A3010008A3010008A301000880
:1000D000A3010008A3010008A3010008A301000870
:1000E000A3010008A3010008A301000800F002F822
:1000F00000F03AF80AA090E8000C82448344AAF188
:100100000107DA4501D100F02FF8AFF2090EBAE885
:100110000F0013F0010F18BFFB1A43F0010318473B
:10012000AC170000CC170000103A24BF78C878C183
:10013000FAD8520724BF30C830C144BF04680C60ED
:10014000704700000023002400250026103A28BF35
:1001500078C1FBD8520728BF30C148BF0B60704739
:100160001FB51FBD10B510BD00F031F81146FFF7E7
:10017000F7FF01F005FB00F04FF803B4FFF7F2FFC3
:1001800003BC00F057F800000948804709480047C1
:10019000FEE7FEE7FEE7FEE7FEE7FEE7FEE7FEE737
:1001A000FEE7FEE704480549054A064B7047000094
:1001B00079170008ED000008D8000020D8060020BC
:1001C000D8020020D802002070477047704775465B
:1001D00000F02CF8AE4605006946534620F00700B3
:1001E000854618B020B5FFF7DDFFBDE820404FF091
:1001F00000064FF000074FF000084FF0000BAC4630
:10020000ACE8C009ACE8C009ACE8C009ACE8C0097A
:1002100021F007018D46704710B50446AFF300800A
:100220002046BDE81040FFF7A8BF00000048704717
:100230001000002001491820ABBEFEE72600020096
:1002400070470000FEE700002DE9F04182B004464F
:1002500008982160A07140F60640C2F61400C4F868
:1002600007000820E07232202271637100F0D6F995
:10027000E07A3825002808BF30252E1D01203827B8
:100280008DF8046000F0CAF901208DF805508DF852
:10029000066000F0C3F9206821794FF47A7801AA4A
:1002A00004238DF80750CDF8008000F09BFBE07A26
:1002B0003826002808BF3026351D01208DF804504F
:1002C00000F0ACF901208DF805608DF8065000F0C3
:1002D000A5F92068217901AA04238DF80760CDF8DB
:1002E000008000F07FFB052000F098F9E07A2825D7
:1002F000002808BF302707F1040008BF20258DF82B
:1003000004000120282600F089F9281D8DF8060038
:1003100001208DF8057000F081F92068217901AA8B
:1003200004238DF80750CDF8008000F05BFB05201A
:1003300000F074F9E07A2825002818BF012008BFD2
:100340002025C700281D8DF80400012000F066F963
:10035000381D8DF8060001208DF8055000F05EF97B
:100360002068217901AA04238DF80770CDF8008058
:1003700000F038FB052000F051F9E079E27A010144
:1003800020F00F0501F10807002A14BF0835070106
:10039000281D8DF80400012000F040F9381D8DF86B
:1003A000060001208DF8055000F038F92068217909
:1003B00001AA04238DF80770CDF8008000F012FB2D
:1003C000207AE27A010120F00F0501F10807002AE6
:1003D00014BF08350701281D8DF80400012000F026
:1003E0001DF9381D8DF8060001208DF8055000F02C
:1003F00015F92068217901AA04238DF80770CDF83A
:10040000008000F0EFFA607AE27A010120F00F0537
:1004100001F10807002A14BF08350701281D8DF8CF
:100420000400012000F0FAF8381D8DF806000120C4
:100430008DF8055000F0F2F82068217901AA042314
:100440008DF80770CDF8008000F0CCFAA07AE27A3F
:10045000010120F00F0501F10807002A14BF08353B
:100460000701281D8DF80400012000F0D7F8381D81
:100470008DF8060001208DF8055000F0CFF82068B7
:10048000217901AA04238DF80770CDF8008000F0CF
:10049000A9FAE07A1827002818BF01204FEAC00502
:1004A00005F1040008BF10278DF80400012000F0BA
:1004B000B5F8381D8DF8060001208DF8055000F0C4
:1004C000ADF82068217901AA04238DF80770CDF8D2
:1004D000008000F087FAE07A00280CBF2026012077
:1004E000C500281D8DF80400012000F097F8301D8C
:1004F0008DF8060001208DF8055000F08FF8206877
:10050000217901AA04238DF80760CDF8008000F05E
:1005100069FA02B0BDE8F08170B582B00446407956
:10052000A379884298BF411E934298BF5A1ED0B209
:10053000032805D8DFE800F009020608403104E08E
:10054000002102E0143100E054310A01E37A01F0A5
:10055000700002F108056FF07702002B08BF6FF002
:100560007F0202EB000606F1040008BF0D018DF8C2
:100570000400012000F052F8281D8DF8060001202B
:100580008DF8056000F04AF8206821794FF47A76FA
:1005900001AA04238DF80750009600F023FA02B058
:1005A00070BD00002DE9F04782B00A788AB3824618
:1005B0004E1E4FF47A780DF1040900BF11019AF82C
:1005C0000B3022F00F0001F10807002B14BF083098
:1005D0001701451C05308DF8040001207C1C00F03B
:1005E0001DF8781D8DF8060001208DF8055000F0EB
:1005F00015F8DAF800009AF804104A4604238DF83A
:100600000740CDF8008000F0EDF9B2780136002AFD
:10061000D4D102B0BDE8F08770470000B0B5044601
:1006200000F01EF9054640F20000C2F2000000781A
:10063000611C18BF044400BF00F012F9401BA04227
:10064000FAD3B0BD2DE9F04F82B00E68002E00F055
:10065000038141F20042C4F20102042340F2004E41
:10066000904208BF03234FF6FF7CC4F2010E0093B3
:1006700000240123C1F2100C4FF0000A4FF00009D2
:1006800049E000BF012704F00C030F229A402BEA37
:10069000020207FA03F34FEA9A051A4346F82520A7
:1006A000D1F804B040F20C455FEACB22DEF8082016
:1006B00054BF22EA080242EA0802C4F20105CEF859
:1006C00008202A685FEA8B2354BF22EA080242EA24
:1006D00008022A605FEA8B33DEF8042054BF22EA66
:1006E000080242EA08025FEACB33CEF80420DEF8C3
:1006F00000204FF0010354BF22EA080242EA080238
:10070000CEF800200E680AF1010A36FA0AF204F166
:10071000040400F0A18003FA0AF816EA080FF1D0E9
:100720004E68664512DC122E56D8DFE806F0350B0F
:100730004549555555555555555555555555554D8D
:10074000510000BFD1F80C9046E000BF4FF6FF7299
:10075000C1F2210296420FDC0022C1F21102964240
:100760001AD00022C1F21202964215D00022C1F224
:100770002102964210D02FE00022C1F222029642BE
:100780000AD00022C1F23102964205D00022C1F205
:100790003202964220D100BF8A684AB1012A14BFB2
:1007A000C0F81480C0F810804FF0080914E000BFB2
:1007B0004FF0040910E000BFCA6802F108090BE01D
:1007C0004FF0000908E000BFCA6802F1040903E025
:1007D000CA6802F10C0900BF22460646BAF1080FAA
:1007E00024BF203A043637680F25954027EA0505CF
:1007F00009FA02F22A433260CA79D2067FF582AF43
:1008000041F21803C4F202031A68AEF57E7642F094
:1008100001021A601A6802F001020192019A2AF09C
:10082000030256F802B040F60002C4F20102904200
:1008300010D040F60042C4F2010290423FF422AFD1
:1008400041F20002C4F20102009F904208BF022759
:1008500019E700BF002716E702B0BDE8F08F0000DF
:1008600040F2D400C2F200000068704770B5B8B31F
:10087000044690F83D0028B9002084F83C0020464A
:1008800000F09AF9242084F83D002068016821F0E6
:1008900001010160016841F400410160016821F437
:1008A0000041016000F03EFB48F28041C0F21E01B1
:1008B00040F60013D4F804E088424FF00001C0F283
:1008C0003D0348F2A16C4FF0000238BF012198426D
:1008D000C0F2010C38BF0122E64538BF0A460AB112
:1008E000012070BD4DF68361C4F21B31A0FB0112E3
:1008F0002168950C4B684FF4967623F03F0343EA4A
:100900009243754344F6D3564B60C1F262060B6ABC
:10091000A5FB0656B50923F03F03E64538BF950C05
:100920006A1C1A430A62CA6948F2A0664CF6FF7351
:10093000C0F20106B64522EA03020BD801384FEA9D
:100940004E03B0FBF3F001306FF31F30042898BF63
:1009500004201EE0A368013863B119230EFB03F3E2
:10096000B0FBF3F001306FF31F3078B100F5804039
:1009700008E000BF0EEB4E03B0FBF3F001306FF365
:100980001F3028B100F5004003E000BF012000E067
:1009900001201043C8610868D4E9072320F0C00093
:1009A000104318430860886848F2FF3204F10C06CF
:1009B00090434CCE18431043A5698860C86820F066
:1009C000FF0030432843C860086840F00100086019
:1009D00000202021206484F83D10206384F83E002C
:1009E00070BD00002DE9F04383B01E4617468946CE
:1009F0000446FFF735FF94F83D10202920D1054625
:100A0000206800BF8169890716D5FFF729FF411BC0
:100A100020681A29F6D381698907F3D5002020219F
:100A2000206384F83D1084F83E00216C41F02001E1
:100A3000216484F83C0003E094F83C10012903D1C0
:100A4000022003B0BDE8F083012184F83C10016866
:100A5000C90703D1016841F001010160016840F25A
:100A6000020821F400610160212184F83D10102169
:100A700084F83E100021216467626685618DC0F2B2
:100A800001082185A8F10211E162E16A0A9E11F5CF
:100A9000803F18BF01291DD1016841F480710160B8
:100AA00020464FF0011100223346009500F0A0FCD3
:100AB00050B120680068C00544BF4FF40070206446
:100AC000012003B0BDE8F0832069B0F5804F07D165
:100AD000FE2015E00829DFD0216B1229DCD0DFE7EA
:100AE000062000EAD9102168F030086108F10601FB
:100AF000204632462B4600F065FD0028E0D1FF205D
:100B0000216800EA090008612046414632462B462A
:100B100000F058FD0028D3D10020029020684169E0
:100B2000029180690290029806E000BF204631469B
:100B30002A4600F0FDFB18BB208D68B320463146E5
:100B40002A4600F0AFFDD8B9606A2168024612F863
:100B5000013B0B616262628D013A6285228D531EF8
:100B600023854F697F07E1D51B04DFD0437802302E
:100B70000B616062608D01386085901E2085D5E72D
:100B8000206C04289CD12068016841F40071016048
:100B9000012003B0BDE8F0832068016841F40071D2
:100BA0000160202084F83D00002084F83E0084F895
:100BB0003C0003B0BDE8F08310B586B045F20041BB
:100BC0000068C4F2000100228842049202D006B0FC
:100BD00010BD00BF41F21804C4F20204206840F0C6
:100BE00008002060206800F0080001900198C020F3
:100BF0000290122003900320059001F5384002A9CD
:100C0000FFF720FD606840F400106060606800F449
:100C100000100190019806B010BD000040F20000E5
:100C200040F2D401C2F20000C2F2000100780A686A
:100C3000104408607047000080B542F20000C4F222
:100C40000200016841F010010160032000F07AF811
:100C50000F2000F005F800F027F8002080BD00000C
:100C600070B540F20006C2F2000640F20801327888
:100C7000C2F200014FF47A730968B3FBF2F2044642
:100C8000B1FBF2F1084600F03BFB0F2C4FF00105E1
:100C900008D838B94FF0FF3021460022002500F077
:100CA00025F87460284670BD82B041F21800C4F285
:100CB00002000168022241F001010160016801F0B7
:100CC000010101910199416841F080514160406802
:100CD00000F08050009000980420C4F201000168E8
:100CE00062F31A61016002B07047000010B54EF661
:100CF0000C5CCEF2000CDCF80030C3F3022E8EF058
:100D00000704042C28BF0424BEF103034FF0FF3E68
:100D10000EFA04F438BF0023A14399400EFA03F3FE
:100D20009A43114300F00F0200F160430901043AB5
:100D300003F564436244002848BF02F10C031970B4
:100D400010BD00004EF60C51CEF200010A684FF6BD
:100D5000FF031A4060F30A2242F0806040F0FD7009
:100D6000086070472DE9F04381B0002800F08580CD
:100D700042F20008C4F202080446D8F800000D460A
:100D800000F0070088420CD2D8F8000020F00700DD
:100D90002843C8F80000D8F8000000F00700A84277
:100DA0006BD1206841F204098107C4F2020917D50A
:100DB000410705D5D9F8001041F4E061C9F80010E9
:100DC000010705D5D9F8001041F46051C9F80010A9
:100DD000D9F80010A26821F0F0011143C9F8001001
:100DE000C00741D1D8F8000000F00700A8420CD994
:100DF000D8F8000020F007002843C8F80000D8F811
:100E0000000000F00700A84237D12068410707D54D
:100E1000D9F80010E26821F4E0611143C9F800102C
:100E2000000708D5D9F80000216920F4605040EA95
:100E3000C100C9F80000D9F8002002F00C00082811
:100E400041F20020C0F27A0050D141F6BA03C2F359
:100E50008341C0F60003595CD2033BD440F6001036
:100E6000C0F23D00484341E0606802280AD00128F2
:100E70002AD159F8041C890308D4012001B0BDE827
:100E8000F08300BF59F8041C8901F6D5D9F8001089
:100E900021F003010843C9F80000FFF7E1FC064612
:100EA00041F28837D9F80000616800F00C00B0EB1F
:100EB000810F97D0FFF7D4FC801BB842F2D90320F2
:100EC00001B0BDE8F08300BF59F8041C8907D4D5F0
:100ED000DCE700BFD9F8002041F6B803C2F3404276
:100EE000C0F600039A5C4843B0FBF2F0D9F800105A
:100EF00041F6A002C1F30311C0F60002515C40F2BA
:100F0000080220FA01F140F20400C2F20000006879
:100F1000C2F200021160FFF7A3FE002001B0BDE89D
:100F2000F083000040F2080041F20401C2F2000028
:100F3000C4F202010068096841F6B002C1F302215F
:100F4000C0F60002515CC840704700002DE9F04136
:100F500082B0002868D00446007841F20006C0073D
:100F6000C4F2020625D0706800F00C0004281BD0E3
:100F7000706800F00C00082802D17068C00313D418
:100F80006068002800F06881B0F5A02F00F07C8137
:100F9000B0F5803F00F07C81306820F48030306014
:100FA000306820F4802076E13068800301D56068E5
:100FB000D0B32078800718D5706810F00C0F07D0D8
:100FC000706800F00C0008286ED17068C0036BD404
:100FD0003068800702D52069012825D13068616911
:100FE00020F0F80040EAC1003060207800071FD4EC
:100FF0002078400732D4E56995B1706800F00C00A4
:10100000082840F08F80012D0ED07068216A00F40E
:1010100080328A4208D1616A00F47010884203D19C
:10102000002002B0BDE8F081012002B0BDE8F081EF
:10103000A069002862D00020C4F242200121C0F83B
:101040008014FFF70DFC0546706A800700F18C8064
:10105000FFF706FC401B0228F6D92AE1F06910F0E0
:10106000805808D1F06940F08050F061F06900F0DC
:1010700080500090009847F20007C4F200073868DB
:10108000C00529D4386840F480703860FFF7E8FB69
:10109000054600BF3868C0051ED4FFF7E1FB401BC2
:1010A0006428F7D905E100BF2069002840F200005C
:1010B000C4F2422000F0828001210160FFF7D0FBE2
:1010C000054600BF306880073FF588AFFFF7C8FBD3
:1010D000401B0228F6D9ECE0E068002800F0808090
:1010E000052800F09780012800F09880306A20F0F1
:1010F00001003062306A20F0040092E00020C4F267
:1011000042200021C0F88014FFF7AAFB054600BF6B
:10111000706A80077FF56CAFFFF7A2FB401B0228C7
:10112000F6D9C6E00027C4F2422700203866FFF750
:1011300097FB022D05460BD13068800140F1BE803F
:10114000FFF78EFB401B02284FF00300F4D968E73D
:10115000306880017FF564AFFFF782FB401B0228F7
:101160004FF00300F4D95CE740F20800C2F200003F
:10117000006844F6D351C1F26201A0FB0101480AA4
:10118000019000BF00BF0198411E002801913FF46B
:101190002FAF00BF0198411E002801913FF428AFF6
:1011A00000BF0198411E002801913FF421AF00BF0C
:1011B0000198411E00280191E4D119E70021016046
:1011C000FFF74EFB054600BF306880077FF50DAF87
:1011D000FFF746FB401B02284FF00300F4D920E73D
:1011E000306A20F001003062306A20F00400306282
:1011F000FFF736FB054641F2883700BF306A8007AB
:1012000020D5FFF72DFB401BB8424FF00300F5D966
:1012100007E700BF306A40F004003062306A40F0F7
:1012200001003062FFF71CFB054641F2883700BF22
:10123000306A800706D4FFF713FB401BB842F7D98A
:1012400037E000BFB8F1000F7FF4D5AEF06920F0B1
:101250008050F061CFE600BF306820F4803030600D
:10126000306820F480203060FFF7FAFA054600BFAE
:10127000306880037FF59DAEFFF7F2FA401B6428CB
:101280004FF00300F4D9CCE6306840F480203060A1
:10129000306840F480303060FFF7E2FA054600BF66
:1012A000306880033FF585AEFFF7DAFA401B64280B
:1012B000F6D9032002B0BDE8F08100BF206AB0F586
:1012C000803F05D17168A26821F40031114371603B
:1012D0007168626A21F4741111430843706001203F
:1012E0003866FFF7BDFA0446306880013FF598AED6
:1012F000FFF7B6FA001B02284FF00300F4D990E67E
:10130000411E0020B0EB116F1CBF012070474EF250
:101310001002CEF2000251604EF62351CEF20001CF
:10132000F0230B700721906011607047FEE700000A
:1013300070B50368044653F8140F400711D40E46E5
:10134000481C29D086BB00BF1868400527D4FFF78A
:1013500087FA236853F8140F400739D518684007F7
:10136000F2D5002070BD00BF18684007F9D4186896
:10137000400514D418684007F3D4186840050ED40B
:1013800018684007EDD41868400508D4186840076D
:101390004FF0000048BF70BD18684005E4D56FF4F9
:1013A00080601860042014E0154603E053F8140F21
:1013B0004007D6D418684005F1D4FFF751FA401B16
:1013C0002368B042F2D958694007EFD4202000E0EA
:1013D000202000212022216384F83D2084F83E1043
:1013E000226C10432064012084F83C1070BD000082
:1013F0002DE9F041054600681E46144601F47F02BF
:1014000001338FB242D0DDF81880B2F5803F40F052
:10141000878040693840C01BB0FA80F04009A04284
:1014200040F0C8804EB924E040693840C01BB0FA93
:1014300080F04009A04240F0BD80FFF711FAA0EB18
:1014400008012868B142EFD941693940C91BB1FA96
:1014500081F14909A142E7D19BE000BF40693840D2
:10146000C01BB0FA80F04009A0424FF0000040F0ED
:10147000A680FFF7F5F9286841693940C91BB1FA20
:1014800081F14909A142E9D183E000BFB2F5803F73
:1014900024D100BF41693940C91BB1FA81F1490922
:1014A000A14240F0878041693940C91BB1FA81F1FE
:1014B0004909A14240F07E8041693940C91BB1FA17
:1014C00081F14909A14275D141693940C91BB1FA7D
:1014D00081F14909A142DDD06CE000BF816939404A
:1014E000C91BB1FA81F14909A14263D1816939402F
:1014F000C91BB1FA81F14909A1425BD18169394027
:10150000C91BB1FA81F14909A14253D1816939401E
:10151000C91BB1FA81F14909A142DFD04AE000BFFD
:1015200080693840C01BB0FA80F04009A04241D128
:1015300046B923E080693840C01BB0FA80F040090A
:10154000A0423BD1FFF78CF9A0EB08012868B1421B
:10155000F0D981693940C91BB1FA81F14909A14229
:10156000E8D116E080693840C01BB0FA80F040092D
:10157000A0424FF0000018BFBDE8F081FFF770F9FE
:10158000286881693940C91BB1FA81F14909A14232
:10159000E8D100202021286385F83D1085F83E0021
:1015A000296C41F02001296485F83C000120BDE848
:1015B000F08100BF0020BDE8F08100BF0020BDE841
:1015C000F0810000F0B581B0044600681D46436913
:1015D0008FB203EA0701B94202D1002001B0F0BD89
:1015E00041691646013201F4806125D0002940D1BD
:1015F000CEB100BFFFF734F9411B2068B14203D9D7
:1016000041693940B9424BD141693940B942E4D0CE
:1016100041694905EED52CE041693940B942DCD039
:101620004169490525D4FFF71BF920684169394014
:10163000B942F1D0202024E0D9B941693940B942FA
:10164000CBD04169490514D441693940B942C4D06D
:10165000416949050DD441693940B942BDD041695C
:10166000490506D441693940B942B6D041694905B6
:10167000E3D5016841F4007101606FF4806141615C
:10168000042000212022216384F83D2084F83E10AC
:10169000226C1043206484F83C10012001B0F0BD9E
:1016A0002020EEE770B50368044653F8140F0006D7
:1016B00011D40E46481C29D086BB00BF18684005CF
:1016C00027D4FFF7CDF8236853F8140F000639D557
:1016D00018680006F2D5002070BD00BF186800062B
:1016E000F9D41868400514D418680006F3D41868B3
:1016F00040050ED418680006EDD41868400508D4DB
:10170000186800064FF0000048BF70BD186840051B
:10171000E4D56FF480601860042014E0154603E0FF
:1017200053F8140F0006D6D418684005F1D4FFF71B
:1017300097F8401B2368B042F2D958690006EFD4ED
:10174000202000E0202000212022216384F83D2079
:1017500084F83E10226C10432064012084F83C1071
:1017600070BD0000FEE70000FEE7000070470000CB
:1017700070470000FFF752BA70470000FEE7000014
:1017800090B0FFF759FA00240120CDE90B44CDE9D0
:10179000094406900A904FF4E0104FF4803102257E
:1017A0000F9006A8CDE90714CDE90D51FFF7CEFB48
:1017B00020B1EFF3108072B6FEE700BF0F20CDE935
:1017C00001054FF48060CDE9040401A802210394CF
:1017D000FFF7C8FA20B1EFF3108072B6FEE700BF42
:1017E00041F21800C4F20200016840F2700541F0B5
:1017F000200101600168C2F2000501F0200106919C
:1018000006990168002241F00401016001684FF46B
:10181000804301F0040106910699016841F0080136
:101820000160006845F2004100F00800069006984B
:10183000C4F20001284640F8101F48F2A061C0F22F
:101840000101C0E90112C0E90323C0E90522C0E992
:101850000722FFF70BF828B1EFF3108072B600BF34
:10186000FEE700BF2C1D4FF0040C05F110012046CF
:101870004E221423CDF800C0FEF7E6FC20460121DD
:1018800001220126FEF748FE03A12046FEF78AFE4C
:101890002E6000BFFEE700BF56696E6800000000C2
:1018A0000000000000000000010203040607080910
:1018B0000000000001020304010202030405060700
:1018C00008090A0B0C0D0E0F10100000F01800088C
:1018D0000000002010000000280100080019000886
:1018E00010000020C80600004401000800000000AD
:1018F00001000000100000000024F40000000000BF
:04000005080000ED02
:00000001FF
