:020000040800F2
:10000000E0060020890100082D14000825140008CE
:1000100029140008910200084D1400080000000097
:10002000000000000000000000000000351400087F
:10003000950200080000000031140008391400087F
:10004000A3010008A3010008A3010008A301000800
:10005000A3010008A3010008A3010008A3010008F0
:10006000A3010008A3010008A3010008A3010008E0
:10007000A3010008A3010008A3010008A3010008D0
:10008000A3010008A3010008A3010008A3010008C0
:10009000A3010008A3010008A3010008A3010008B0
:1000A000A3010008A3010008A3010008A3010008A0
:1000B00041140008A3010008A3010008A3010008DF
:1000C000A3010008A3010008A3010008A301000880
:1000D000A3010008A3010008A3010008A301000870
:1000E000A3010008A3010008A301000800F002F822
:1000F00000F03AF80AA090E8000C82448344AAF188
:100100000107DA4501D100F02FF8AFF2090EBAE885
:100110000F0013F0010F18BFFB1A43F0010318473B
:10012000FC1700001C180000103A24BF78C878C1E2
:10013000FAD8520724BF30C830C144BF04680C60ED
:10014000704700000023002400250026103A28BF35
:1001500078C1FBD8520728BF30C148BF0B60704739
:100160001FB51FBD10B510BD00F058F81146FFF7C0
:10017000F7FF01F06DF900F076F803B4FFF7F2FF36
:1001800003BC00F07DF8000009488047094800479B
:10019000FEE7FEE7FEE7FEE7FEE7FEE7FEE7FEE737
:1001A000FEE7FEE704480549054A064B7047000094
:1001B0003D140008ED000008E0000020E0060020EB
:1001C000E0020020E00200204FF0000200B51346DC
:1001D00094469646203922BFA0E80C50A0E80C5067
:1001E000B1F12001BFF4F7AF090728BFA0E80C5018
:1001F00048BF0CC05DF804EB890028BF40F8042B11
:1002000008BF704748BF20F8022B11F0804F18BF7D
:1002100000F8012B7047704770477047754600F033
:100220002BF8AE4605006946534620F00700854688
:1002300018B020B5FFF7B6FFBDE820404FF000062C
:100240004FF000074FF000084FF0000BAC46ACE851
:10025000C009ACE8C009ACE8C009ACE8C00921F0AD
:1002600007018D46704710B50446AFF30080204665
:10027000BDE81040FFF781BF00487047180000201C
:1002800001491820ABBEFEE72600020070470000BF
:10029000FEE70000704700002DE9F04F82B00E68C5
:1002A000002E00F0038141F20042C4F20102042357
:1002B00040F2004E904208BF03234FF6FF7CC4F289
:1002C000010E009300240123C1F2100C4FF0000A2C
:1002D0004FF0000949E000BF012704F00C030F2292
:1002E0009A402BEA020207FA03F34FEA9A051A43EF
:1002F00046F82520D1F804B040F20C455FEACB2245
:10030000DEF8082054BF22EA080242EA0802C4F2DA
:100310000105CEF808202A685FEA8B2354BF22EA41
:10032000080242EA08022A605FEA8B33DEF8042002
:1003300054BF22EA080242EA08025FEACB33CEF851
:100340000420DEF800204FF0010354BF22EA080227
:1003500042EA0802CEF800200E680AF1010A36FAD5
:100360000AF204F1040400F0A18003FA0AF816EA84
:10037000080FF1D04E68664512DC122E56D8DFE821
:1003800006F0350B45495555555555555555555557
:100390005555554D510000BFD1F80C9046E000BFB7
:1003A0004FF6FF72C1F2210296420FDC0022C1F229
:1003B000110296421AD00022C1F21202964215D0C2
:1003C0000022C1F22102964210D02FE00022C1F299
:1003D000220296420AD00022C1F23102964205D092
:1003E0000022C1F23202964220D100BF8A684AB18F
:1003F000012A14BFC0F81480C0F810804FF008091B
:1004000014E000BF4FF0040910E000BFCA6802F119
:1004100008090BE04FF0000908E000BFCA6802F1CC
:10042000040903E0CA6802F10C0900BF224606462F
:10043000BAF1080F24BF203A043637680F259540DB
:1004400027EA050509FA02F22A433260CA79D20680
:100450007FF582AF41F21803C4F202031A68AEF5C9
:100460007E7642F001021A601A6802F001020192DF
:10047000019A2AF0030256F802B040F60002C4F2D4
:100480000102904210D040F60042C4F201029042B4
:100490003FF422AF41F20002C4F20102009F9042F9
:1004A00008BF022719E700BF002716E702B0BDE822
:1004B000F08F0000002A08BF0904016170470000A6
:1004C00040F2D800C2F200000068704740F20C0011
:1004D00040F2D801C2F20000C2F2000100780A68BE
:1004E000104408607047000080B542F20000C4F27A
:1004F0000200016841F010010160032000F08EF855
:100500000F2000F005F800F027F8002080BD000063
:1005100070B540F20C06C2F2000640F214013278C7
:10052000C2F200014FF47A730968B3FBF2F2044699
:10053000B1FBF2F1084600F03BFB0F2C4FF0010538
:1005400008D838B94FF0FF3021460022002500F0CE
:1005500039F87460284670BD82B041F21800C4F2C8
:1005600002000168022241F001010160016801F00E
:10057000010101910199416841F080514160406859
:1005800000F08050009000980420C4F2010001683F
:1005900062F31A61016002B070470000002848BF92
:1005A0007047C1B200F01F00012202FA00F04EF2C3
:1005B0000012CEF2000242EAD10121F003010860EC
:1005C0007047000010B54EF60C5CCEF2000CDCF863
:1005D0000030C3F3022E8EF00704042C28BF04243D
:1005E000BEF103034FF0FF3E0EFA04F438BF0023C0
:1005F000A14399400EFA03F39A43114300F00F020E
:1006000000F160430901043A03F5644362440028A1
:1006100048BF02F10C03197010BD00004EF60C51DA
:10062000CEF200010A684FF6FF031A4060F30A2277
:1006300042F0806040F0FD70086070472DE9F043A3
:1006400081B0002800F0858042F20008C4F2020860
:100650000446D8F800000D4600F0070088420CD28E
:10066000D8F8000020F007002843C8F80000D8F8A8
:10067000000000F00700A8426BD1206841F2040995
:100680008107C4F2020917D5410705D5D9F8001032
:1006900041F4E061C9F80010010705D5D9F8001050
:1006A00041F46051C9F80010D9F80010A26821F097
:1006B000F0011143C9F80010C00741D1D8F800007B
:1006C00000F00700A8420CD9D8F8000020F007007D
:1006D0002843C8F80000D8F8000000F00700A8423E
:1006E00037D12068410707D5D9F80010E26821F416
:1006F000E0611143C9F80010000708D5D9F80000DF
:10070000216920F4605040EAC100C9F80000D9F81E
:10071000002002F00C00082841F20020C0F27A000C
:1007200050D141F60C13C2F38341C0F60003595C6B
:10073000D2033BD440F60010C0F23D00484341E0F4
:10074000606802280AD001282AD159F8041C8903BC
:1007500008D4012001B0BDE8F08300BF59F8041CA3
:100760008901F6D5D9F8001021F003010843C9F832
:100770000000FFF7A5FE064641F28837D9F80000D1
:10078000616800F00C00B0EB810F97D0FFF798FE86
:10079000801BB842F2D9032001B0BDE8F08300BF4E
:1007A00059F8041C8907D4D5DCE700BFD9F800202C
:1007B00041F60A13C2F34042C0F600039A5C484374
:1007C000B0FBF2F0D9F8001041F6FA02C1F30311C0
:1007D000C0F60002515C40F2140220FA01F140F22E
:1007E0001000C2F200000068C2F200021160FFF7C0
:1007F0008FFE002001B0BDE8F08300002DE9F0413C
:1008000082B0002868D00446007841F20006C00794
:10081000C4F2020625D0706800F00C0004281BD03A
:10082000706800F00C00082802D17068C00313D46F
:100830006068002800F06881B0F5A02F00F07C818E
:10084000B0F5803F00F07C81306820F4803030606B
:10085000306820F4802076E13068800301D560683C
:10086000D0B32078800718D5706810F00C0F07D02F
:10087000706800F00C0008286ED17068C0036BD45B
:100880003068800702D52069012825D13068616968
:1008900020F0F80040EAC1003060207800071FD443
:1008A0002078400732D4E56995B1706800F00C00FB
:1008B000082840F08F80012D0ED07068216A00F466
:1008C00080328A4208D1616A00F47010884203D1F4
:1008D000002002B0BDE8F081012002B0BDE8F08147
:1008E000A069002862D00020C4F242200121C0F893
:1008F0008014FFF7E5FD0546706A800700F18C80E3
:10090000FFF7DEFD401B0228F6D92AE1F06910F05E
:10091000805808D1F06940F08050F061F06900F033
:1009200080500090009847F20007C4F20007386832
:10093000C00529D4386840F480703860FFF7C0FDE6
:10094000054600BF3868C0051ED4FFF7B9FD401B3F
:100950006428F7D905E100BF2069002840F20000B3
:10096000C4F2422000F0828001210160FFF7A8FD5F
:10097000054600BF306880073FF588AFFFF7A0FD50
:10098000401B0228F6D9ECE0E068002800F08080E7
:10099000052800F09780012800F09880306A20F048
:1009A00001003062306A20F0040092E00020C4F2BE
:1009B00042200021C0F88014FFF782FD054600BFE9
:1009C000706A80077FF56CAFFFF77AFD401B022845
:1009D000F6D9C6E00027C4F2422700203866FFF7A8
:1009E0006FFD022D05460BD13068800140F1BE80BD
:1009F000FFF766FD401B02284FF00300F4D968E7BB
:100A0000306880017FF564AFFFF75AFD401B022874
:100A10004FF00300F4D95CE740F21400C2F200008A
:100A2000006844F6D351C1F26201A0FB0101480AFB
:100A3000019000BF00BF0198411E002801913FF4C2
:100A40002FAF00BF0198411E002801913FF428AF4D
:100A500000BF0198411E002801913FF421AF00BF63
:100A60000198411E00280191E4D119E7002101609D
:100A7000FFF726FD054600BF306880077FF50DAF04
:100A8000FFF71EFD401B02284FF00300F4D920E7BA
:100A9000306A20F001003062306A20F004003062D9
:100AA000FFF70EFD054641F2883700BF306A800728
:100AB00020D5FFF705FD401BB8424FF00300F5D9E4
:100AC00007E700BF306A40F004003062306A40F04F
:100AD00001003062FFF7F4FC054641F2883700BFA1
:100AE000306A800706D4FFF7EBFC401BB842F7D909
:100AF00037E000BFB8F1000F7FF4D5AEF06920F009
:100B00008050F061CFE600BF306820F48030306064
:100B1000306820F480203060FFF7D2FC054600BF2B
:100B2000306880037FF59DAEFFF7CAFC401B642848
:100B30004FF00300F4D9CCE6306840F480203060F8
:100B4000306840F480303060FFF7BAFC054600BFE3
:100B5000306880033FF585AEFFF7B2FC401B642888
:100B6000F6D9032002B0BDE8F08100BF206AB0F5DD
:100B7000803F05D17168A26821F400311143716092
:100B80007168626A21F47411114308437060012096
:100B90003866FFF795FC0446306880013FF598AE53
:100BA000FFF78EFC001B02284FF00300F4D990E6FB
:100BB000411E0020B0EB116F1CBF012070474EF2A8
:100BC0001002CEF2000251604EF62351CEF2000127
:100BD000F0230B7007219060116070477047000090
:100BE0007047000010B590F83C20012A4FF0020237
:100BF00033D080F83D200268D2F804E0D2F808C073
:100C00000C682EF07003234340F2FF74C4F200041A
:100C1000A24253600ADCB2F1804F13D040F200438D
:100C2000C4F200039A420DD011E000BF42F6004327
:100C3000C4F201039A4205D040F60003C4F2000357
:100C40009A4204D149682CF0800319439160012134
:100C5000002280F83D1080F83C20104610BD0000B6
:100C6000002804BF0120704710B5044690F83D00ED
:100C700028B9002084F83C00204600F067F80220E4
:100C800084F83D00206840F2FF730268C4F200035C
:100C900042F6004C9842C4F2010C15DCB0F1804FD2
:100CA0001AD040F20041C4F20001884214D09842A8
:100CB00018DCB0F1804F1DD040F20041C4F20001B9
:100CC000884217D01AE000BF604505D040F6000109
:100CD000C4F200018842EAD1A16822F070020A43FE
:100CE0009842E6DD604505D040F60001C4F20001FF
:100CF000884203D1216922F440720A43A36922F099
:100D00008001D4F804E0E268194360450160C262E2
:100D1000C0F828E002D16169CCF8301001214161AE
:100D2000002084F8461084F83E1084F83F1084F8C0
:100D3000401084F8411084F8421084F8431084F87D
:100D4000441084F8451084F83D1010BD80B582B081
:100D50000068B0F1804F1CBF02B080BD41F21C00A2
:100D6000C4F202000168002241F001010160006844
:100D7000002100F00100019001981C20FFF722FCE7
:100D80001C2002B0BDE88040FFF708BC90F83D1081
:100D900001291CBF01207047022180F83D10006826
:100DA00040F2FF72C168C4F20002904241F00101BA
:100DB000C16009DCB0F1804F12D040F20041C4F2B2
:100DC000000188420CD012E042F60041C4F2010159
:100DD000884205D040F60001C4F20001884206D1E5
:100DE000816801F00701062904BF002070470168EF
:100DF00041F00101016000207047000080B590F8CB
:100E00003C20012A4FF0020200F0C28080F83D2011
:100E1000D0F800C04FF67772DCF8083023EA0202FF
:100E2000CCF808200B684F2B28DC1F2B44DD202B2F
:100E300045D0302B43D0402B40F0AC80D1F804E0BB
:100E4000C968DCF82030DCF8202022F00102CCF860
:100E50002020DCF8182022F0F00242EA011123F0F1
:100E60000A0242EA0E02CCF81810CCF82020DCF876
:100E7000081041F0470121F0300180E06F2B27DDA1
:100E8000B3F5005F48D0B3F5805F7AD0702B40F0A7
:100E90008180D1E901E3C968DCF8082043EA0E0348
:100EA00022F47F4243EA01211143CCF80810DCF818
:100EB000081041F0770162E00BB1102B6AD1DCF829
:100EC000081021F07001194341F0070157E000BFFD
:100ED000502B35D0602B5DD1D1F804E0C968DCF827
:100EE0002030DCF8202022F01002CCF82020DCF8A2
:100EF000182022F4704242EA013123F0A00242EAB3
:100F00000E12CCF81810CCF82020DCF8081041F0B4
:100F1000670121F0100132E0D1E901E3C968DCF892
:100F2000082043EA0E0322F47F4243EA01211143E1
:100F3000CCF80810DCF8081041F480411FE000BF35
:100F4000D1F804E0C968DCF82030DCF8202022F079
:100F50000102CCF82020DCF8182022F0F00242EA4E
:100F6000011123F00A0242EA0E02CCF81810CCF864
:100F70002020DCF8081041F0570121F02001CCF8C6
:100F800008100022012180F83D10002180F83C105B
:100F9000104680BD0122F5E77047000010B50168DA
:100FA00004460869800744BFC8685FEA807039D486
:100FB0000869400744BFC8685FEA40703ED40869CA
:100FC000000744BFC8685FEA007045D40869C006DE
:100FD00044BFC8685FEAC0604AD40869C0071CBF44
:100FE000C8685FEAC07051D10869000644BFC8688C
:100FF0005FEA006052D40869400644BFC8685FEAEF
:10100000406053D40869800646BFC8685FEA8060C4
:1010100010BD6FF0200220460A61BDE81040FFF7C6
:10102000DFBD00BF6FF002000861012020778869F2
:10103000800743D02046FFF7AFFF45E06FF0040084
:10104000086102202077886910F4407F40D0204654
:10105000FFF7A2FF42E000BF6FF008000861042024
:101060002077C86980073DD02046FFF795FF3FE015
:101070006FF01000086108202077C86910F4407FE5
:101080003AD02046FFF788FF3CE000BF6FF0010038
:101090000861204600F088F92168A5E76FF080001C
:1010A00008612046FFF79AFD2168A4E76FF0400031
:1010B0000861204600F0B4F92168A3E7204600F05B
:1010C000F7F8204600F06EF92168002020776FE7DE
:1010D000204600F0EDF8204600F064F92168002079
:1010E00020776CE7204600F0E3F8204600F05AF93C
:1010F00021680020207769E7204600F0D9F82046D3
:1011000000F050F921680020207766E72DE9F041D2
:1011100090F83C30012B04BF0220BDE8F0814FEA7B
:10112000B202032A30D8DFE802F00337679700BF26
:10113000026842F60045146A136AC4F2010523F0FE
:10114000010313625368D2F818C0AA428D68D1F81F
:1011500000E024F0020444EA05040BD1CD68D1E993
:10116000056723F4407324F00C0425F00405334391
:101170002C433B432CF0730747EA0E0753609761FB
:101180004968516314628BE00121002280F83C2001
:101190000846BDE8F08100BF026842F60045146AC7
:1011A000136AC4F2010523F0100313625368D2F8E6
:1011B00018C0AA428D68D1F800E024F0200444EA67
:1011C00005140FD1CD68D1E905876FF0400624F0F2
:1011D000C00406EA05152C4323F4406348EA0705DA
:1011E00043EA85032CF4E64747EA0E2753609761EC
:1011F00049689163146253E0026842F60045146A3C
:10120000136AC4F2010523F4807313625368D2F8A1
:101210001CC0AA428D68D1F800E024F4007444EAAE
:1012200005240FD1CD68D1E905872D0240F2FF4694
:1012300024F44064B5432C4323F4405348EA0705A3
:1012400043EA05132CF0730747EA0E075360D76192
:101250004968D163146223E0026842F60046D2F87E
:1012600020C0136AC4F2010623F48053136253684A
:10127000D4690D68D1F808E0B24204D14E6923F474
:10128000804343EA861324F4E64646EA0526536083
:10129000D6612CF40057496847EA0E331164136293
:1012A0000021002280F83C200846BDE8F0810000C3
:1012B00070470000002804BF0120704710B50446A5
:1012C00090F83D0028B9002084F83C00204600F04A
:1012D00067F8022084F83D00206840F2FF7302683E
:1012E000C4F2000342F6004C9842C4F2010C15DC33
:1012F000B0F1804F1AD040F20041C4F200018842A0
:1013000014D0984218DCB0F1804F1DD040F200415B
:10131000C4F20001884217D01AE000BF604505D032
:1013200040F60001C4F200018842EAD1A16822F02F
:1013300070020A439842E6DD604505D040F60001A0
:10134000C4F20001884203D1216922F440720A43A9
:10135000A36922F08001D4F804E0E26819436045F3
:101360000160C262C0F828E002D16169CCF8301097
:1013700001214161002084F8461084F83E1084F871
:101380003F1084F8401084F8411084F8421084F82B
:10139000431084F8441084F8451084F83D1010BDC3
:1013A00070470000704700002DE9F04740F27807D1
:1013B000C2F20007D7E903810020D7F80490C4F2F5
:1013C000203000F025FA0446386040F20000C2F2F6
:1013D000000090E86200204600F04EF98246204668
:1013E000294600F049F9494600F0E4F805467860DE
:1013F0002046414600F00CFA0146304600F03CF928
:101400000646C7E902045046294600F0D3F83146A3
:1014100000F0D0F80021C7E90410BDE8F087000013
:1014200070470000FEE70000FEE70000FEE7000056
:101430007047000070470000FFF748B87047000091
:1014400040F29000C2F20000FFF7A8BDFEE70000E6
:1014500092B0FFF749F806AC201D2421FEF7B4FE38
:101460000220069001200A9010200B9000252046B3
:101470000D95FFF7C3F928B1EFF3108072B600BFE6
:10148000FEE700BF0F20CDE9010501A80021CDE94D
:1014900003550595FFF7D2F820B1EFF3108072B62F
:1014A000FEE700BF40F27805C2F20005002641F2D7
:1014B00018002E61C4F20200016840F6004441F0B9
:1014C000080101600168C4F2010401F008010691FD
:1014D00006990168002241F00401016000680121C1
:1014E00000F004000690069820460127FEF7E2FF70
:1014F0000220099006A92046CDE906770897FEF755
:10150000CBFE4FF08041284640F8181F302140F2B2
:10151000E7320496CDE90266CDE91066CDE90B66A7
:10152000CDE90966C0E90116C0E903268661FFF727
:1015300097FB28B1EFF3108072B600BFFEE700BF43
:101540004FF4805005F11804019001A92046FFF7DF
:1015500055FC28B1EFF3108072B600BFFEE700BF64
:101560002046FFF7A7FE28B1EFF3108072B600BF48
:10157000FEE700BF10A92046FFF734FB20B1EFF3D0
:10158000108072B6FEE700BF0020CDE9060008908B
:101590000A9006A920460022FFF7B8FD20B1EFF31C
:1015A000108072B6FEE700BF2046FFF7EFFB00BFDA
:1015B000FEE7000090EA010F48BF81F0004100F112
:1015C0002E81421A3CBF801A89184FEAD052A2EBF2
:1015D000D1534FF07F4C1CEA410F18BF9CEA026FB9
:1015E00000F03B804FF0004C4CEA00204CEA012117
:1015F00021FA03FC10EB0C0C1ED202F1FF325FEA61
:101600001C2040EBC25038BF70471CF07F0F4FEAE0
:10161000400C18BFBCF17F4F38BF7047C3F12003A7
:10162000994008BF20F00100BCF17F4F38BF7047E0
:10163000A0F1C04000F0E7B84FEA3C00000A40EBE0
:10164000C25028BF1CF0FF0F4FEA400CE6D018BF75
:10165000BCF17F4F38BF7047EAE79CEA026F05D0C4
:1016600010EA5C0F08BF00F00040704710B500F0B2
:1016700084F800BF64FBBE3E4FF47F0C1CEAD0121E
:101680001EBF1CEAD11392EA0C0F93EA0C0F00F074
:10169000478090EA010F48BF42F480724FF0004C3F
:1016A0004CEA00204CEA012102EB0302A0FB0113EB
:1016B000A2F50002002918BF43F001035B0028BF18
:1016C0004FEA330342EB22425FEA132C4CEBC25049
:1016D0002EBFBCEB436FB2F57C0F70474FEA036C33
:1016E000BCF1004F08BF20F00100B2F57C0F38BFFD
:1016F00070470BD582F0FF0212F5803FC8BF7047DC
:1017000000F1C040D8BF00F00040704700F5000C69
:101710005FEA4C0C48BF7047B0F1C04000F073B8AE
:101720000CEAD11390EA010F48BF42F4807262457F
:1017300038BF634504D280EA010000F000407047E2
:1017400010B500F01AF800BF8900013E00F007B89C
:1017500000F009B85FEA410C5FEA1C6C08D080EA2F
:10176000010000F050B85FEA400C5FEA1C6CF6D153
:101770004FF00040A0F5800070470EF1020E2EF0F1
:10178000030E5EF8044B244204D44FEA4102B2F146
:101790007F4F11D84FEA4003B3F17F4F0CD80ED1E1
:1017A0004FEAD07C0CEB4C0C0CF1020CB2F17F4FE9
:1017B00008BF4CEBD17C04E04FF0080C01E04FEA8D
:1017C000D17C0CEB4C0324FA03F404F00704B4F1CD
:1017D000040C06D20EEB840CBDE810404CF0010C5A
:1017E0006047DFE80CF0070802024FF00040A0F568
:1017F000800010BD0846420018BFD2F1807288BF39
:1018000000F0004010BDFF2141EAD050C0057047F4
:1018100090EA010F48BF81F000413FF5D2AE421A75
:1018200004D882F00042A0EB020011444FEAD052EB
:10183000A2EBD1534FF07F4C1CEA410F18BF9CEA3A
:10184000026F4AD04FF0004C4CEA00204CEA0121D4
:1018500021FA03FCB0EB0C0C0FD412F0FE0F36D0C3
:101860005FEA4C001DD5001240EBC25038BF7047F4
:101870001CF03F0F18BF70470BE05FEA1C20A2F17D
:10188000010240EBC25038BF70471CF07F0F18BFF9
:101890007047C3F12003994014BF401E20F001009F
:1018A00070474FEA1223800808BF7047B0FA80FCE7
:1018B000A2EB0C02CCF1280C60FA0CF093EA122F88
:1018C00004BF00EBC25070474FEAC3707047130A61
:1018D0005FEADC1008BF7047F6E79CEA026F04D0AD
:1018E00010EA5C0F08BF0020704710B5FFF745FFF6
:1018F00040DFF63E81F0004070470000000000002D
:10190000000001020304060708090102020304059E
:10191000060708090A0B0C0D0E0F101040190008DD
:1019200000000020180000002801000858190008D5
:1019300018000020C8060000440100080000000054
:101940000000003FCDCC4C3ECDCCCC3D0100000092
:08195000100000000024F40067
:04000005080000ED02
:00000001FF
